{
  "contractName": "PlanSubscriptionManager",
  "abi": [
    {
      "constant": true,
      "inputs": [
        {
          "name": "action",
          "type": "string"
        },
        {
          "name": "subscriptionHash",
          "type": "bytes32"
        }
      ],
      "name": "getActionHash",
      "outputs": [
        {
          "name": "",
          "type": "bytes32"
        }
      ],
      "payable": false,
      "stateMutability": "pure",
      "type": "function"
    },
    {
      "constant": true,
      "inputs": [],
      "name": "subscriptionCount",
      "outputs": [
        {
          "name": "",
          "type": "uint256"
        }
      ],
      "payable": false,
      "stateMutability": "view",
      "type": "function"
    },
    {
      "constant": true,
      "inputs": [
        {
          "name": "subscriptionHash",
          "type": "bytes32"
        }
      ],
      "name": "getSubscription",
      "outputs": [
        {
          "name": "subscriber",
          "type": "address"
        },
        {
          "name": "token",
          "type": "address"
        },
        {
          "name": "amount",
          "type": "uint256"
        },
        {
          "name": "periodUnit",
          "type": "uint8"
        },
        {
          "name": "periods",
          "type": "uint256"
        },
        {
          "name": "maxExecutions",
          "type": "uint256"
        },
        {
          "name": "start",
          "type": "uint256"
        }
      ],
      "payable": false,
      "stateMutability": "view",
      "type": "function"
    },
    {
      "constant": true,
      "inputs": [
        {
          "name": "subscriber",
          "type": "address"
        },
        {
          "name": "offset",
          "type": "uint256"
        },
        {
          "name": "limit",
          "type": "uint256"
        }
      ],
      "name": "subscriberSubscriptionRange",
      "outputs": [
        {
          "name": "",
          "type": "bytes32[]"
        }
      ],
      "payable": false,
      "stateMutability": "view",
      "type": "function"
    },
    {
      "constant": false,
      "inputs": [
        {
          "name": "subscriptionHash",
          "type": "bytes32"
        },
        {
          "name": "signature",
          "type": "bytes"
        }
      ],
      "name": "cancel",
      "outputs": [],
      "payable": false,
      "stateMutability": "nonpayable",
      "type": "function"
    },
    {
      "constant": true,
      "inputs": [],
      "name": "PLAN_AUTHORIZATION_TYPEHASH",
      "outputs": [
        {
          "name": "",
          "type": "bytes32"
        }
      ],
      "payable": false,
      "stateMutability": "view",
      "type": "function"
    },
    {
      "constant": true,
      "inputs": [
        {
          "name": "subscriber",
          "type": "address"
        }
      ],
      "name": "subscriberSubscriptionCount",
      "outputs": [
        {
          "name": "",
          "type": "uint256"
        }
      ],
      "payable": false,
      "stateMutability": "view",
      "type": "function"
    },
    {
      "constant": true,
      "inputs": [
        {
          "name": "offset",
          "type": "uint256"
        },
        {
          "name": "limit",
          "type": "uint256"
        }
      ],
      "name": "subscriptionRange",
      "outputs": [
        {
          "name": "subscriptions",
          "type": "bytes32[]"
        }
      ],
      "payable": false,
      "stateMutability": "view",
      "type": "function"
    },
    {
      "constant": true,
      "inputs": [],
      "name": "acceptedToken",
      "outputs": [
        {
          "name": "",
          "type": "address"
        }
      ],
      "payable": false,
      "stateMutability": "view",
      "type": "function"
    },
    {
      "constant": true,
      "inputs": [],
      "name": "wallet",
      "outputs": [
        {
          "name": "",
          "type": "address"
        }
      ],
      "payable": false,
      "stateMutability": "view",
      "type": "function"
    },
    {
      "constant": false,
      "inputs": [
        {
          "name": "subscriptionHashes",
          "type": "bytes32[]"
        }
      ],
      "name": "executeBatch",
      "outputs": [],
      "payable": false,
      "stateMutability": "nonpayable",
      "type": "function"
    },
    {
      "constant": true,
      "inputs": [
        {
          "name": "subscriptionHash",
          "type": "bytes32"
        }
      ],
      "name": "isActive",
      "outputs": [
        {
          "name": "",
          "type": "bool"
        }
      ],
      "payable": false,
      "stateMutability": "view",
      "type": "function"
    },
    {
      "constant": true,
      "inputs": [],
      "name": "REMOVE_PLAN_TYPEHASH",
      "outputs": [
        {
          "name": "",
          "type": "bytes32"
        }
      ],
      "payable": false,
      "stateMutability": "view",
      "type": "function"
    },
    {
      "constant": true,
      "inputs": [],
      "name": "ADD_PLAN_TYPEHASH",
      "outputs": [
        {
          "name": "",
          "type": "bytes32"
        }
      ],
      "payable": false,
      "stateMutability": "view",
      "type": "function"
    },
    {
      "constant": false,
      "inputs": [],
      "name": "renounceOwnership",
      "outputs": [],
      "payable": false,
      "stateMutability": "nonpayable",
      "type": "function"
    },
    {
      "constant": true,
      "inputs": [
        {
          "name": "index",
          "type": "uint256"
        }
      ],
      "name": "subscriptionByIndex",
      "outputs": [
        {
          "name": "",
          "type": "bytes32"
        }
      ],
      "payable": false,
      "stateMutability": "view",
      "type": "function"
    },
    {
      "constant": true,
      "inputs": [],
      "name": "SET_ACTIVE_TYPEHASH",
      "outputs": [
        {
          "name": "",
          "type": "bytes32"
        }
      ],
      "payable": false,
      "stateMutability": "view",
      "type": "function"
    },
    {
      "constant": true,
      "inputs": [],
      "name": "owner",
      "outputs": [
        {
          "name": "",
          "type": "address"
        }
      ],
      "payable": false,
      "stateMutability": "view",
      "type": "function"
    },
    {
      "constant": true,
      "inputs": [],
      "name": "isOwner",
      "outputs": [
        {
          "name": "",
          "type": "bool"
        }
      ],
      "payable": false,
      "stateMutability": "view",
      "type": "function"
    },
    {
      "constant": true,
      "inputs": [
        {
          "name": "subscriptionHash",
          "type": "bytes32"
        }
      ],
      "name": "isCancelled",
      "outputs": [
        {
          "name": "",
          "type": "bool"
        }
      ],
      "payable": false,
      "stateMutability": "view",
      "type": "function"
    },
    {
      "constant": true,
      "inputs": [],
      "name": "SUBSCRIPTION_TYPEHASH",
      "outputs": [
        {
          "name": "",
          "type": "bytes32"
        }
      ],
      "payable": false,
      "stateMutability": "view",
      "type": "function"
    },
    {
      "constant": true,
      "inputs": [
        {
          "name": "",
          "type": "bytes32"
        }
      ],
      "name": "plans",
      "outputs": [
        {
          "name": "price",
          "type": "uint256"
        },
        {
          "name": "periodUnit",
          "type": "uint8"
        },
        {
          "name": "periods",
          "type": "uint256"
        },
        {
          "name": "maxExecutions",
          "type": "uint256"
        },
        {
          "name": "priv",
          "type": "bool"
        },
        {
          "name": "active",
          "type": "bool"
        },
        {
          "name": "removed",
          "type": "bool"
        }
      ],
      "payable": false,
      "stateMutability": "view",
      "type": "function"
    },
    {
      "constant": true,
      "inputs": [],
      "name": "EIP712DOMAIN_TYPEHASH",
      "outputs": [
        {
          "name": "",
          "type": "bytes32"
        }
      ],
      "payable": false,
      "stateMutability": "view",
      "type": "function"
    },
    {
      "constant": false,
      "inputs": [
        {
          "name": "subscriptionHash",
          "type": "bytes32"
        }
      ],
      "name": "cancel",
      "outputs": [],
      "payable": false,
      "stateMutability": "nonpayable",
      "type": "function"
    },
    {
      "constant": true,
      "inputs": [],
      "name": "authorizer",
      "outputs": [
        {
          "name": "",
          "type": "address"
        }
      ],
      "payable": false,
      "stateMutability": "view",
      "type": "function"
    },
    {
      "constant": false,
      "inputs": [
        {
          "name": "subscriptionHash",
          "type": "bytes32"
        }
      ],
      "name": "execute",
      "outputs": [],
      "payable": false,
      "stateMutability": "nonpayable",
      "type": "function"
    },
    {
      "constant": true,
      "inputs": [
        {
          "name": "subscriber",
          "type": "address"
        },
        {
          "name": "index",
          "type": "uint256"
        }
      ],
      "name": "subscriberSubscriptionByIndex",
      "outputs": [
        {
          "name": "",
          "type": "bytes32"
        }
      ],
      "payable": false,
      "stateMutability": "view",
      "type": "function"
    },
    {
      "constant": false,
      "inputs": [
        {
          "name": "newOwner",
          "type": "address"
        }
      ],
      "name": "transferOwnership",
      "outputs": [],
      "payable": false,
      "stateMutability": "nonpayable",
      "type": "function"
    },
    {
      "constant": true,
      "inputs": [],
      "name": "domainSeparator",
      "outputs": [
        {
          "name": "",
          "type": "bytes32"
        }
      ],
      "payable": false,
      "stateMutability": "view",
      "type": "function"
    },
    {
      "constant": true,
      "inputs": [],
      "name": "SUBSCRIPTION_ACTION_TYPEHASH",
      "outputs": [
        {
          "name": "",
          "type": "bytes32"
        }
      ],
      "payable": false,
      "stateMutability": "view",
      "type": "function"
    },
    {
      "constant": true,
      "inputs": [
        {
          "name": "hash",
          "type": "bytes32"
        },
        {
          "name": "signature",
          "type": "bytes"
        }
      ],
      "name": "getSigner",
      "outputs": [
        {
          "name": "",
          "type": "address"
        }
      ],
      "payable": false,
      "stateMutability": "view",
      "type": "function"
    },
    {
      "constant": true,
      "inputs": [
        {
          "name": "subscriptionHash",
          "type": "bytes32"
        }
      ],
      "name": "nextPaymentTimestamp",
      "outputs": [
        {
          "name": "",
          "type": "uint256"
        }
      ],
      "payable": false,
      "stateMutability": "view",
      "type": "function"
    },
    {
      "inputs": [
        {
          "name": "addresses",
          "type": "address[]"
        },
        {
          "name": "planIdHashes",
          "type": "bytes32[]"
        },
        {
          "name": "planPrices",
          "type": "uint256[]"
        },
        {
          "name": "planPeriodUnits",
          "type": "uint8[]"
        },
        {
          "name": "planPeriods",
          "type": "uint256[]"
        },
        {
          "name": "planMaxPeriods",
          "type": "uint256[]"
        },
        {
          "name": "planPrivate",
          "type": "bool[]"
        }
      ],
      "payable": false,
      "stateMutability": "nonpayable",
      "type": "constructor"
    },
    {
      "anonymous": false,
      "inputs": [
        {
          "indexed": true,
          "name": "planIdHash",
          "type": "bytes32"
        },
        {
          "indexed": false,
          "name": "price",
          "type": "uint256"
        },
        {
          "indexed": false,
          "name": "period",
          "type": "uint256"
        }
      ],
      "name": "PlanAdded",
      "type": "event"
    },
    {
      "anonymous": false,
      "inputs": [
        {
          "indexed": true,
          "name": "planIdHash",
          "type": "bytes32"
        }
      ],
      "name": "PlanRemoved",
      "type": "event"
    },
    {
      "anonymous": false,
      "inputs": [
        {
          "indexed": true,
          "name": "planIdHash",
          "type": "bytes32"
        },
        {
          "indexed": false,
          "name": "active",
          "type": "bool"
        }
      ],
      "name": "PlanSetActive",
      "type": "event"
    },
    {
      "anonymous": false,
      "inputs": [
        {
          "indexed": false,
          "name": "subscriptionHash",
          "type": "bytes32"
        }
      ],
      "name": "SubscriptionCreated",
      "type": "event"
    },
    {
      "anonymous": false,
      "inputs": [
        {
          "indexed": false,
          "name": "subscriptionHash",
          "type": "bytes32"
        },
        {
          "indexed": false,
          "name": "expired",
          "type": "bool"
        }
      ],
      "name": "SubscriptionCancelled",
      "type": "event"
    },
    {
      "anonymous": false,
      "inputs": [
        {
          "indexed": false,
          "name": "subscriptionHash",
          "type": "bytes32"
        }
      ],
      "name": "SubscriptionExecuted",
      "type": "event"
    },
    {
      "anonymous": false,
      "inputs": [
        {
          "indexed": true,
          "name": "previousOwner",
          "type": "address"
        },
        {
          "indexed": true,
          "name": "newOwner",
          "type": "address"
        }
      ],
      "name": "OwnershipTransferred",
      "type": "event"
    },
    {
      "constant": false,
      "inputs": [
        {
          "name": "planIdHash",
          "type": "bytes32"
        },
        {
          "name": "price",
          "type": "uint256"
        },
        {
          "name": "periodUnit",
          "type": "uint8"
        },
        {
          "name": "periods",
          "type": "uint256"
        },
        {
          "name": "maxExecutions",
          "type": "uint256"
        },
        {
          "name": "priv",
          "type": "bool"
        },
        {
          "name": "sig",
          "type": "bytes"
        }
      ],
      "name": "addPlan",
      "outputs": [],
      "payable": false,
      "stateMutability": "nonpayable",
      "type": "function"
    },
    {
      "constant": false,
      "inputs": [
        {
          "name": "planIdHash",
          "type": "bytes32"
        },
        {
          "name": "sig",
          "type": "bytes"
        }
      ],
      "name": "removePlan",
      "outputs": [],
      "payable": false,
      "stateMutability": "nonpayable",
      "type": "function"
    },
    {
      "constant": false,
      "inputs": [
        {
          "name": "planIdHash",
          "type": "bytes32"
        },
        {
          "name": "active",
          "type": "bool"
        },
        {
          "name": "nonce",
          "type": "bytes32"
        },
        {
          "name": "sig",
          "type": "bytes"
        }
      ],
      "name": "setActive",
      "outputs": [],
      "payable": false,
      "stateMutability": "nonpayable",
      "type": "function"
    },
    {
      "constant": false,
      "inputs": [
        {
          "name": "maxExecutions",
          "type": "uint256"
        },
        {
          "name": "start",
          "type": "uint256"
        },
        {
          "name": "planIdHash",
          "type": "bytes32"
        },
        {
          "name": "nonce",
          "type": "bytes32"
        },
        {
          "name": "authSig",
          "type": "bytes"
        },
        {
          "name": "sig",
          "type": "bytes"
        }
      ],
      "name": "create",
      "outputs": [],
      "payable": false,
      "stateMutability": "nonpayable",
      "type": "function"
    }
  ],
  "bytecode": "0x60806040523480156200001157600080fd5b5060405162003da138038062003da1833981018060405260e08110156200003757600080fd5b8101908080516401000000008111156200005057600080fd5b820160208101848111156200006457600080fd5b81518560208202830111640100000000821117156200008257600080fd5b505092919060200180516401000000008111156200009f57600080fd5b82016020810184811115620000b357600080fd5b8151856020820283011164010000000082111715620000d157600080fd5b50509291906020018051640100000000811115620000ee57600080fd5b820160208101848111156200010257600080fd5b81518560208202830111640100000000821117156200012057600080fd5b505092919060200180516401000000008111156200013d57600080fd5b820160208101848111156200015157600080fd5b81518560208202830111640100000000821117156200016f57600080fd5b505092919060200180516401000000008111156200018c57600080fd5b82016020810184811115620001a057600080fd5b8151856020820283011164010000000082111715620001be57600080fd5b50509291906020018051640100000000811115620001db57600080fd5b82016020810184811115620001ef57600080fd5b81518560208202830111640100000000821117156200020d57600080fd5b505092919060200180516401000000008111156200022a57600080fd5b820160208101848111156200023e57600080fd5b81518560208202830111640100000000821117156200025c57600080fd5b5050929190505050866000815181106200027257fe5b6020026020010151876001815181106200028857fe5b602090810291909101015160008054600160a060020a0319163317808255604051600160a060020a0391909116919060008051602062003c6c833981519152908290a360405180603a62003c32823960405190819003603a0190207f8efea30086451ce9078f6724758fd325989eacdb25a4db53cda50312196a67601490506200030e57fe5b60405180602762003b54823960405190819003602701902060008051602062003bab8339815191521490506200034057fe5b6040805160008051602062003bab833981519152602080830191909152308284015282518083038401815260609092019092528051910120600255600160a060020a038116620003f157604080517f08c379a000000000000000000000000000000000000000000000000000000000815260206004820152601160248201527f57616c6c65742063616e27742062652030000000000000000000000000000000604482015290519081900360640190fd5b60018054600160a060020a031916600160a060020a0383161790556200042082640100000000620008dd810204565b505086516004146200047e576040517f08c379a000000000000000000000000000000000000000000000000000000000815260040180806020018281038252602681526020018062003c8c6026913960400191505060405180910390fd5b6000600160a060020a0316876002815181106200049757fe5b6020026020010151600160a060020a031614156200051657604080517f08c379a000000000000000000000000000000000000000000000000000000000815260206004820152601060248201527f546f6b656e2063616e2774206265203000000000000000000000000000000000604482015290519081900360640190fd5b6000600160a060020a0316876003815181106200052f57fe5b6020026020010151600160a060020a03161415620005ae57604080517f08c379a000000000000000000000000000000000000000000000000000000000815260206004820152601560248201527f417574686f72697a65722063616e277420626520300000000000000000000000604482015290519081900360640190fd5b86600281518110620005bc57fe5b6020026020010151600b60006101000a815481600160a060020a030219169083600160a060020a0316021790555086600381518110620005f857fe5b6020026020010151600c60006101000a815481600160a060020a030219169083600160a060020a03160217905550604051808062003cf0608a913960405190819003608a0190207fd3307f9981a4cfcb5a659dc18022334f7bc2b6d72fcc20723a225e939165d6671490506200066a57fe5b60405180603e62003cb2823960405190819003603e0190207fce1ad2dec01fa016f621edb08cef9d4e608bde7a5feccdabbd95d7ae21122eca149050620006ad57fe5b60405180606762003bcb82396040519081900360670190207f8be900e5d8700ab17934948496f0bb52143028109f3783369f4fc937dd1af465149050620006f057fe5b604080517f52656d6f7665506c616e28737472696e6720706c616e29000000000000000000815290519081900360170190207f2237217912dfc8a3dd0776917d3c8a0fdb382ea70d014f757e954a09c10f7724146200074b57fe5b60405180603062003b7b82396040519081900360300190207f290836b44dd68304c2182c17b0636d11f95905c9b3e22bf964684b5853f758e91490506200078e57fe5b84518651148015620007a1575083518551145b8015620007af575082518451145b8015620007bd575081518351145b8015620007cb575080518251145b62000822576040517f08c379a000000000000000000000000000000000000000000000000000000000815260040180806020018281038252602781526020018062003d7a6027913960400191505060405180910390fd5b60005b8651811015620008cf57620008c68782815181106200084057fe5b60200260200101518783815181106200085557fe5b60200260200101518784815181106200086a57fe5b60200260200101518785815181106200087f57fe5b60200260200101518786815181106200089457fe5b6020026020010151878781518110620008a957fe5b60200260200101516200093b640100000000026401000000009004565b60010162000825565b505050505050505062000b3b565b600160a060020a038116620008f157600080fd5b60008054604051600160a060020a038085169392169160008051602062003c6c83398151915291a360008054600160a060020a031916600160a060020a0392909216919091179055565b84620009a857604080517f08c379a000000000000000000000000000000000000000000000000000000000815260206004820152601560248201527f506c616e2070726963652063616e277420626520300000000000000000000000604482015290519081900360640190fd5b8262000a1557604080517f08c379a000000000000000000000000000000000000000000000000000000000815260206004820152601760248201527f506c616e20706572696f64732063616e27742062652030000000000000000000604482015290519081900360640190fd5b6000868152600e60205260409020805415801562000a3e5750600481015462010000900460ff16155b62000aaa57604080517f08c379a000000000000000000000000000000000000000000000000000000000815260206004820152601d60248201527f506c616e2069642068617320616c7265616479206265656e2075736564000000604482015290519081900360640190fd5b85815560018082018054879260ff199091169083600281111562000aca57fe5b0217905550600281018490556003810183905560048101805461010060ff199091168415151761ff0019161790556040805187815260208101869052815189927fdb8058133075cfa72497ff172a7be056530b25c8535e24092853f8ab63c2f14e928290030190a250505050505050565b6130098062000b4b6000396000f3fe608060405234801561001057600080fd5b5060043610610239576000357c0100000000000000000000000000000000000000000000000000000000900480638da5cb5b11610142578063d09edf31116100ca578063f2fde38b11610099578063f2fde38b146109c0578063f698da25146109e6578063f788e834146109ee578063f7b2ec0d146109f6578063fca3465714610aa357610239565b8063d09edf31146108f8578063d686869614610900578063e751f27114610977578063ed4d4d7a1461099457610239565b8063a95ab2a511610111578063a95ab2a514610747578063aa4f2653146107e0578063c49f91d31461084e578063c4d252f514610856578063c59b58ca1461087357610239565b80638da5cb5b146107125780638f32d59b1461071a5780639a5d4407146107225780639a7f640d1461073f57610239565b8063451c3d80116101c55780636a524887116101945780636a524887146106d55780637073293b146106dd578063715018a6146106e55780638c5acd57146106ed5780638d29bbfb1461070a57610239565b8063451c3d8014610608578063521eb2731461062c5780635bf8e09d146106345780635c36901c146106a457610239565b80632b8337921161020c5780632b833792146103f9578063302bacf31461054057806338c03c55146105b75780633e389b58146105bf578063449e8f0c146105e557610239565b806315209f5e1461023e578063173b6d90146102f85780631f32768e1461030057806327bbc06d14610377575b600080fd5b6102e66004803603604081101561025457600080fd5b81019060208101813564010000000081111561026f57600080fd5b82018360208201111561028157600080fd5b803590602001918460018302840111640100000000831117156102a357600080fd5b91908080601f0160208091040260200160405190810160405280939291908181526020018383808284376000920191909152509295505091359250610ac0915050565b60408051918252519081900360200190f35b6102e6610b20565b61031d6004803603602081101561031657600080fd5b5035610b27565b60408051600160a060020a03808a168252881660208201529081018690526060810185600281111561034b57fe5b60ff16815260200184815260200183815260200182815260200197505050505050505060405180910390f35b6103a96004803603606081101561038d57600080fd5b50600160a060020a038135169060208101359060400135610c1b565b60408051602080825283518183015283519192839290830191858101910280838360005b838110156103e55781810151838201526020016103cd565b505050509050019250505060405180910390f35b61053e600480360360c081101561040f57600080fd5b81359160208101359160408201359160608101359181019060a08101608082013564010000000081111561044257600080fd5b82018360208201111561045457600080fd5b8035906020019184600183028401116401000000008311171561047657600080fd5b91908080601f01602080910402602001604051908101604052809392919081815260200183838082843760009201919091525092959493602081019350359150506401000000008111156104c957600080fd5b8201836020820111156104db57600080fd5b803590602001918460018302840111640100000000831117156104fd57600080fd5b91908080601f016020809104026020016040519081016040528093929190818152602001838380828437600092019190915250929550610c4b945050505050565b005b61053e6004803603604081101561055657600080fd5b8135919081019060408101602082013564010000000081111561057857600080fd5b82018360208201111561058a57600080fd5b803590602001918460018302840111640100000000831117156105ac57600080fd5b509092509050610efc565b6102e661102d565b6102e6600480360360208110156105d557600080fd5b5035600160a060020a0316611051565b6103a9600480360360408110156105fb57600080fd5b5080359060200135611070565b61061061107e565b60408051600160a060020a039092168252519081900360200190f35b61061061108d565b61053e6004803603602081101561064a57600080fd5b81019060208101813564010000000081111561066557600080fd5b82018360208201111561067757600080fd5b8035906020019184602083028401116401000000008311171561069957600080fd5b50909250905061109c565b6106c1600480360360208110156106ba57600080fd5b50356110cf565b604080519115158252519081900360200190f35b6102e66110ff565b6102e6611123565b61053e611147565b6102e66004803603602081101561070357600080fd5b50356111af565b6102e661122e565b610610611252565b6106c1611261565b6106c16004803603602081101561073857600080fd5b5035611272565b6102e6611287565b61053e600480360360e081101561075d57600080fd5b81359160208101359160ff6040830135169160608101359160808201359160a081013515159181019060e0810160c08201356401000000008111156107a157600080fd5b8201836020820111156107b357600080fd5b803590602001918460018302840111640100000000831117156107d557600080fd5b5090925090506112ab565b6107fd600480360360208110156107f657600080fd5b503561141a565b6040518088815260200187600281111561081357fe5b60ff168152602081019690965250604080860194909452911515606085015215156080840152151560a0830152519081900360c00192509050f35b6102e6611461565b61053e6004803603602081101561086c57600080fd5b5035611485565b61053e6004803603608081101561088957600080fd5b8135916020810135151591604082013591908101906080810160608201356401000000008111156108b957600080fd5b8201836020820111156108cb57600080fd5b803590602001918460018302840111640100000000831117156108ed57600080fd5b509092509050611524565b61061061172b565b61053e6004803603604081101561091657600080fd5b8135919081019060408101602082013564010000000081111561093857600080fd5b82018360208201111561094a57600080fd5b8035906020019184600183028401116401000000008311171561096c57600080fd5b50909250905061173a565b61053e6004803603602081101561098d57600080fd5b5035611941565b6102e6600480360360408110156109aa57600080fd5b50600160a060020a038135169060200135611d62565b61053e600480360360208110156109d657600080fd5b5035600160a060020a0316611df2565b6102e6611e0c565b6102e6611e12565b61061060048036036040811015610a0c57600080fd5b81359190810190604081016020820135640100000000811115610a2e57600080fd5b820183602082011115610a4057600080fd5b80359060200191846001830284011164010000000083111715610a6257600080fd5b91908080601f016020809104026020016040519081016040528093929190818152602001838380828437600092019190915250929550611e36945050505050565b6102e660048036036020811015610ab957600080fd5b5035611ea9565b8151602080840191909120604080517f8efea30086451ce9078f6724758fd325989eacdb25a4db53cda50312196a676081850152808201929092526060808301859052815180840390910181526080909201905280519101205b92915050565b6009545b90565b6000806000806000806000610b3a612e8f565b6000898152600460209081526040918290208251610120810184528154600160a060020a0390811682526001830154169281019290925260028082015493830193909352600381015491929091606084019160ff90911690811115610b9b57fe5b6002811115610ba657fe5b8152602001600482015481526020016005820154815260200160068201548152602001600782015481526020016008820154815250509050806000015181602001518260400151836060015184608001518560a001518660c00151975097509750975097509750975050919395979092949650565b600160a060020a0383166000908152600760205260409020606090610c41908484611edb565b90505b9392505050565b6000848152600e602052604090206004810154610100900460ff16610ca45760405160e560020a62461bcd028152600401808060200182810382526025815260200180612f8d6025913960400191505060405180910390fd5b60038101541580610cb9575080600301548711155b610cf75760405160e560020a62461bcd028152600401808060200182810382526025815260200180612f3d6025913960400191505060405180910390fd5b600b54815460018301546000927fd3307f9981a4cfcb5a659dc18022334f7bc2b6d72fcc20723a225e939165d66792600160a060020a0390911691610d3e9060ff16611f88565b600286015460408051602080820197909752600160a060020a03909516858201526060850193909352608084019190915260a083015260c082018b905260e082018a9052610100820189905261012080830189905281518084039091018152610140909201905280519101209050610db581612059565b6000610dc18285611e36565b600484015490915060ff1615610ea057604080517fce1ad2dec01fa016f621edb08cef9d4e608bde7a5feccdabbd95d7ae21122eca602080830191909152818301859052600160a060020a0384166060808401919091528351808403909101815260809092019092528051910120610e398187611e36565b600c54600160a060020a03908116911614610e9e576040805160e560020a62461bcd02815260206004820152601f60248201527f496e76616c696420617574686f72697a6174696f6e207369676e617475726500604482015290519081900360640190fd5b505b600b54835460018501546002860154610ee19386938693600160a060020a0390921692909160ff16908f15610ed5578f610edb565b89600301545b8f6120c5565b506000908152600d6020526040902094909455505050505050565b6000610f3d6040518060400160405280600681526020017f63616e63656c000000000000000000000000000000000000000000000000000081525085610ac0565b90506000610f818285858080601f016020809104026020016040519081016040528093929190818152602001838380828437600092019190915250611e3692505050565b600086815260046020526040902054909150600160a060020a03908116908216811480610fc65750610fb1611252565b600160a060020a031682600160a060020a0316145b61101a576040805160e560020a62461bcd02815260206004820152601160248201527f496e76616c6964207369676e6174757265000000000000000000000000000000604482015290519081900360640190fd5b611025866000612491565b505050505050565b7fce1ad2dec01fa016f621edb08cef9d4e608bde7a5feccdabbd95d7ae21122eca81565b600160a060020a0381166000908152600760205260409020545b919050565b6060610c4460098484611edb565b600b54600160a060020a031681565b600154600160a060020a031681565b60005b818110156110ca576110c28383838181106110b657fe5b90506020020135611941565b60010161109f565b505050565b60008181526005602052604081205442108015610b1a575050600090815260046020526040902060070154151590565b7f2237217912dfc8a3dd0776917d3c8a0fdb382ea70d014f757e954a09c10f772481565b7f8be900e5d8700ab17934948496f0bb52143028109f3783369f4fc937dd1af46581565b61114f611261565b61115857600080fd5b60008054604051600160a060020a03909116907f8be0079c531659141344cd1fd0a4f28419497f9722a3daafe3b4186f6b6457e0908390a36000805473ffffffffffffffffffffffffffffffffffffffff19169055565b60006111b9610b20565b821061120f576040805160e560020a62461bcd02815260206004820152600d60248201527f496e76616c696420696e64657800000000000000000000000000000000000000604482015290519081900360640190fd5b6009828154811061121c57fe5b90600052602060002001549050919050565b7f290836b44dd68304c2182c17b0636d11f95905c9b3e22bf964684b5853f758e981565b600054600160a060020a031690565b600054600160a060020a0316331490565b60009081526006602052604090205460ff1690565b7fd3307f9981a4cfcb5a659dc18022334f7bc2b6d72fcc20723a225e939165d66781565b7f8be900e5d8700ab17934948496f0bb52143028109f3783369f4fc937dd1af46588886112d789611f88565b60408051602080820196909652808201949094526060840192909252608083015260a0820188905260c0820187905285151560e08084019190915281518084039091018152601f850184900490930282016101209081019091526101008201848152918591859182910183828082843760009201919091525061135d9250611252915050565b600160a060020a031633600160a060020a031614611400578151602083012061138581612059565b61138d611252565b600160a060020a03166113a08284611e36565b600160a060020a0316146113fe576040805160e560020a62461bcd02815260206004820152601e60248201527f4e6f74206f776e6572206f7220696e76616c6964207369676e61747572650000604482015290519081900360640190fd5b505b61140e8a8a8a8a8a8a6125f7565b50505050505050505050565b600e6020526000908152604090208054600182015460028301546003840154600490940154929360ff92831693919290918082169161010082048116916201000090041687565b7f035aff83d86937d35b32e04f0ddc6ff469290eef2f1b692d8a815c89404d474981565b600081815260046020526040902054600160a060020a03163314806114c257506114ad611252565b600160a060020a031633600160a060020a0316145b611516576040805160e560020a62461bcd02815260206004820152601860248201527f4e6f7420617574686f72697a656420746f2063616e63656c0000000000000000604482015290519081900360640190fd5b611521816000612491565b50565b604080517f290836b44dd68304c2182c17b0636d11f95905c9b3e22bf964684b5853f758e9602080830191909152818301889052861515606083015260808083018790528351808403909101815260c0601f86018390049092028301820190935260a0820184815291859185918291018382808284376000920191909152506115b09250611252915050565b600160a060020a031633600160a060020a03161461165357815160208301206115d881612059565b6115e0611252565b600160a060020a03166115f38284611e36565b600160a060020a031614611651576040805160e560020a62461bcd02815260206004820152601e60248201527f4e6f74206f776e6572206f7220696e76616c6964207369676e61747572650000604482015290519081900360640190fd5b505b6000878152600e6020526040902080541580159061167c5750600481015462010000900460ff16155b6116d0576040805160e560020a62461bcd02815260206004820152601260248201527f506c616e20646f65736e27742065786973740000000000000000000000000000604482015290519081900360640190fd5b600481018054881515610100810261ff001990921691909117909155604080519182525189917f2ed70657fe3be61a99b4bea2eeade6644c4165e55aad696b8f7846a2a82201a1919081900360200190a25050505050505050565b600c54600160a060020a031681565b604080517f2237217912dfc8a3dd0776917d3c8a0fdb382ea70d014f757e954a09c10f77246020808301919091528183018690528251808303840181526080601f8601839004909202830182019093526060820184815291859185918291018382808284376000920191909152506117b59250611252915050565b600160a060020a031633600160a060020a03161461185857815160208301206117dd81612059565b6117e5611252565b600160a060020a03166117f88284611e36565b600160a060020a031614611856576040805160e560020a62461bcd02815260206004820152601e60248201527f4e6f74206f776e6572206f7220696e76616c6964207369676e61747572650000604482015290519081900360640190fd5b505b6000858152600e602052604090208054158015906118815750600481015462010000900460ff16155b6118d5576040805160e560020a62461bcd02815260206004820152601260248201527f506c616e20646f65736e27742065786973740000000000000000000000000000604482015290519081900360640190fd5b6000868152600e602052604080822082815560018101805460ff191690556002810183905560038101839055600401805462ffffff1916620100001790555187917fce4839c162c3c8b501ee6f5347548418df5afa2ddf976b0615f48f2284fba70091a2505050505050565b6000818152600460208190526040909120908101546119945760405160e560020a62461bcd02815260040180806020018281038252602b815260200180612f62602b913960400191505060405180910390fd5b6000828152600560205260409020544210156119fa576040805160e560020a62461bcd02815260206004820152601660248201527f537562736372697074696f6e206e6f7420726561647900000000000000000000604482015290519081900360640190fd5b60408051610120810182528254600160a060020a0390811682526001840154166020820152600280840154928201929092526003830154611a92928592918591606084019160ff1690811115611a4c57fe5b6002811115611a5757fe5b8152602001600482015481526020016005820154815260200160068201548152602001600782015481526020016008820154815250506127ad565b600781018054600101908190556004820154600091611ab69163ffffffff61283516565b90506000600383015460ff166002811115611acd57fe5b1415611afc576006820154611ae8908263ffffffff61285c16565b600084815260056020526040902055611b6c565b6001600383015460ff166002811115611b1157fe5b1415611b2c576006820154611ae8908263ffffffff61287116565b6002600383015460ff166002811115611b4157fe5b1415611b6c576006820154611b5c908263ffffffff6128ed16565b6000848152600560205260409020555b600182015482546002840154604080517f70a08231000000000000000000000000000000000000000000000000000000008152600160a060020a03938416600482018190529151939094169390926000929185916370a0823191602480820192602092909190829003018186803b158015611be657600080fd5b505afa158015611bfa573d6000803e3d6000fd5b505050506040513d6020811015611c1057600080fd5b505110801590611cb857506002850154604080517fdd62ed3e000000000000000000000000000000000000000000000000000000008152600160a060020a03858116600483015230602483015291519186169163dd62ed3e91604480820192602092909190829003018186803b158015611c8957600080fd5b505afa158015611c9d573d6000803e3d6000fd5b505050506040513d6020811015611cb357600080fd5b505110155b90508015611d205784546001546002870154611cec92600160a060020a03878116939181169291169063ffffffff61291416565b6040805187815290517f83c61b44a42b48eb9220a7226a1991d5a163bf016b8c3f41631a3d78b0fab5699181900360200190a15b60008560050154600014158015611d3e575085600501548660070154145b9050811580611d4a5750805b15611d5957611d598782612491565b50505050505050565b600160a060020a038216600090815260076020526040812080548310611dd2576040805160e560020a62461bcd02815260206004820152600d60248201527f496e76616c696420696e64657800000000000000000000000000000000000000604482015290519081900360640190fd5b808381548110611dde57fe5b906000526020600020015491505092915050565b611dfa611261565b611e0357600080fd5b611521816129a2565b60025481565b7f8efea30086451ce9078f6724758fd325989eacdb25a4db53cda50312196a676081565b600254604080517f1901000000000000000000000000000000000000000000000000000000000000602080830191909152602282019390935260428082018690528251808303909101815260629091019091528051910120600090611ea1818463ffffffff612a1d16565b949350505050565b60008181526006602052604081205460ff1615611ec85750600061106b565b5060009081526005602052604090205490565b82546060908310611efb5750604080516000815260208101909152610c44565b6000611f0d8385878054905003612b0b565b905080604051908082528060200260200182016040528015611f39578160200160208202803883390190505b50915060005b81811015611f7f578585820181548110611f5557fe5b9060005260206000200154838281518110611f6c57fe5b6020908102919091010152600101611f3f565b50509392505050565b600080826002811115611f9757fe5b1415611fd55750604080517f44617900000000000000000000000000000000000000000000000000000000008152905190819003600301902061106b565b6001826002811115611fe357fe5b14156120215750604080517f4d6f6e74680000000000000000000000000000000000000000000000000000008152905190819003600501902061106b565b50604080517f596561720000000000000000000000000000000000000000000000000000000081529051908190036004019020919050565b60008181526003602052604090205460ff16156120aa5760405160e560020a62461bcd02815260040180806020018281038252602c815260200180612fb2602c913960400191505060405180910390fd5b6000908152600360205260409020805460ff19166001179055565b600088815260046020526040902054600160a060020a03161580156120f9575060008881526006602052604090205460ff16155b61214d576040805160e560020a62461bcd02815260206004820152601360248201527f537562736372697074696f6e2065786973747300000000000000000000000000604482015290519081900360640190fd5b600160a060020a0387166121955760405160e560020a62461bcd028152600401808060200182810382526024815260200180612f196024913960400191505060405180910390fd5b826121ea576040805160e560020a62461bcd02815260206004820152601260248201527f506572696f64732063616e277420626520300000000000000000000000000000604482015290519081900360640190fd5b8461223f576040805160e560020a62461bcd02815260206004820152601160248201527f416d6f756e742063616e27742062652030000000000000000000000000000000604482015290519081900360640190fd5b428111156000816122505782612252565b425b90506040518061012001604052808a600160a060020a0316815260200189600160a060020a0316815260200188815260200187600281111561229057fe5b81526020808201889052604080830188905260608084018690526000608085018190524260a0909501949094528e8452600483529281902084518154600160a060020a0391821673ffffffffffffffffffffffffffffffffffffffff1991821617835593860151600180840180549290931691909516179055908401516002808301919091559284015160038201805492949193909260ff191691849081111561233657fe5b02179055506080820151816004015560a0820151816005015560c0820151816006015560e08201518160070155610100820151816008015590505080600560008c8152602001908152602001600020819055506000600760008b600160a060020a0316600160a060020a0316815260200190815260200160002090508080549050600860008d815260200190815260200160002081905550808b9080600181540180825580915050906001820390600052602060002001600090919290919091505550600980549050600a60008d81526020019081526020016000208190555060098b90806001815401808255809150509060018203906000526020600020016000909192909190915055508215612451576124518b611941565b604080518c815290517f39e5eda858ba6c05b526dc60957aa4a4cb8055d9220f51fbf7f862acfdf6f9ba9181900360200190a15050505050505050505050565b600082815260046020526040902054600160a060020a0316806124fe576040805160e560020a62461bcd02815260206004820152601a60248201527f537562736372697074696f6e20646f65736e2774206578697374000000000000604482015290519081900360640190fd5b600160a060020a038116600090815260076020526040902061252290600885612b21565b61252f6009600a85612b21565b6000838152600460208181526040808420805473ffffffffffffffffffffffffffffffffffffffff199081168255600180830180549092169091556002820186905560038201805460ff1990811690915594820186905560058201869055600680830187905560078301879055600890920186905590835293819020805490931690931790915581518581528415159181019190915281517f4617222a812312a8f02e47908fbb1d797d728facdde75d5c15af4051c6f80bdc929181900390910190a1505050565b8461264c576040805160e560020a62461bcd02815260206004820152601560248201527f506c616e2070726963652063616e277420626520300000000000000000000000604482015290519081900360640190fd5b826126a1576040805160e560020a62461bcd02815260206004820152601760248201527f506c616e20706572696f64732063616e27742062652030000000000000000000604482015290519081900360640190fd5b6000868152600e6020526040902080541580156126c95750600481015462010000900460ff16155b61271d576040805160e560020a62461bcd02815260206004820152601d60248201527f506c616e2069642068617320616c7265616479206265656e2075736564000000604482015290519081900360640190fd5b85815560018082018054879260ff199091169083600281111561273c57fe5b0217905550600281018490556003810183905560048101805461010060ff199091168415151761ff0019161790556040805187815260208101869052815189927fdb8058133075cfa72497ff172a7be056530b25c8535e24092853f8ab63c2f14e928290030190a250505050505050565b6127b78282612bbd565b6000828152600d60209081526040808320548352600e9091529020600481015462010000900460ff16156110ca576040805160e560020a62461bcd02815260206004820152601560248201527f506c616e20686173206265656e2072656d6f7665640000000000000000000000604482015290519081900360640190fd5b60008261284457506000610b1a565b8282028284828161285157fe5b0414610c4457600080fd5b620151808102820182811015610b1a57600080fd5b600080808061288562015180875b04612bc1565b600c9188016000198101838104949094019650945092509006600101915060006128af8484612c57565b9050808211156128bd578091505b620151808706620151806128d2868686612cdd565b02019450868510156128e357600080fd5b5050505092915050565b60008080806128ff620151808761287f565b91870194509250905060006128af8484612c57565b60408051600160a060020a0385811660248301528416604482015260648082018490528251808303909101815260849091019091526020810180517bffffffffffffffffffffffffffffffffffffffffffffffffffffffff167f23b872dd0000000000000000000000000000000000000000000000000000000017905261299c908590612d59565b50505050565b600160a060020a0381166129b557600080fd5b60008054604051600160a060020a03808516939216917f8be0079c531659141344cd1fd0a4f28419497f9722a3daafe3b4186f6b6457e091a36000805473ffffffffffffffffffffffffffffffffffffffff1916600160a060020a0392909216919091179055565b60008151604114612a3057506000610b1a565b60208201516040830151606084015160001a7f7fffffffffffffffffffffffffffffff5d576e7357a4501ddfe92f46681b20a0821115612a765760009350505050610b1a565b8060ff16601b14158015612a8e57508060ff16601c14155b15612a9f5760009350505050610b1a565b6040805160008152602080820180845289905260ff8416828401526060820186905260808201859052915160019260a0808401939192601f1981019281900390910190855afa158015612af6573d6000803e3d6000fd5b5050604051601f190151979650505050505050565b6000818310612b1a5781610c44565b5090919050565b8254600090612b3790600163ffffffff612e4f16565b600083815260208590526040902054909150808214612b97576000858381548110612b5e57fe5b9060005260206000200154905080868381548110612b7857fe5b6000918252602080832090910192909255918252859052604090208190555b8454612ba7866000198301612edb565b5050506000908152602091909152604081205550565b5050565b60008080836226496581018262023ab1600483020590506004600362023ab18302010590910390600062164b09610fa0600185010205905060046105b58202058303601f019250600061098f8460500281612c1857fe5b0590506000605061098f83020585039050600b820560301994909401606402929092018301996002600c90940290910392909201975095509350505050565b60008160011480612c685750816003145b80612c735750816005145b80612c7e5750816007145b80612c895750816008145b80612c94575081600a145b80612c9f575081600c145b15612cac5750601f610b1a565b81600214612cbc5750601e610b1a565b612cc583612e64565b612cd057601c612cd3565b601d5b60ff169392505050565b60006107b2841015612cee57600080fd5b838383600062253d8c600460036064611324600c600d19890105890101050205600c80600d19870105600c02600287030361016f0281612d2a57fe5b0560046105b5600c600d1989010589016112c0010205617d4b8603010103039050809450505050509392505050565b612d6b82600160a060020a0316612e89565b612d7457600080fd5b6000606083600160a060020a0316836040518082805190602001908083835b60208310612db25780518252601f199092019160209182019101612d93565b6001836020036101000a0380198251168184511680821785525050505050509050019150506000604051808303816000865af19150503d8060008114612e14576040519150601f19603f3d011682016040523d82523d6000602084013e612e19565b606091505b509150915081612e2857600080fd5b80511561299c57808060200190516020811015612e4457600080fd5b505161299c57600080fd5b600082821115612e5e57600080fd5b50900390565b600060048206158015612e7957506064820615155b80610b1a57505061019090061590565b3b151590565b6040805161012081018252600080825260208201819052918101829052906060820190815260200160008152602001600081526020016000815260200160008152602001600081525090565b8154818355818111156110ca576000838152602090206110ca918101908301610b2491905b80821115612f145760008155600101612f00565b509056fe537562736372696265722063616e277420626520746865207a65726f20616464726573734d617820706572696f64732065786365656420706c616e2773206d617820706572696f6473537562736372697074696f6e20646f65736e2774206578697374206f72207761732063616e63656c6c6564506c616e20646f65736e277420616363657074206e657720737562736372697074696f6e734861736820616c72656164792076657269666965642c20757365206120646966666572656e74206e6f6e6365a165627a7a723058204f3d11520e98f03422afc7d93781f6380efccbd2b635c104cd7d11b264b634340029454950373132446f6d61696e286164647265737320766572696679696e67436f6e74726163742953657441637469766528737472696e6720706c616e2c626f6f6c206163746976652c62797465733332206e6f6e636529035aff83d86937d35b32e04f0ddc6ff469290eef2f1b692d8a815c89404d4749416464506c616e28737472696e6720706c616e2c75696e743235362070726963652c737472696e6720706572696f64556e69742c75696e7432353620706572696f64732c75696e74323536206d6178457865637574696f6e732c626f6f6c207072697661746529537562736372697074696f6e416374696f6e28737472696e6720616374696f6e2c6279746573333220737562736372697074696f6e48617368298be0079c531659141344cd1fd0a4f28419497f9722a3daafe3b4186f6b6457e0446966666572656e74206e756d626572206f66206164647265737365732070726f7669646564506c616e417574686f72697a6174696f6e286279746573333220737562736372697074696f6e486173682c61646472657373207375627363726962657229537562736372697074696f6e286164647265737320746f6b656e2c75696e7432353620616d6f756e742c737472696e6720706572696f64556e69742c75696e7432353620706572696f64732c75696e74323536206d6178457865637574696f6e732c75696e743235362073746172742c737472696e6720706c616e2c62797465733332206e6f6e636529506c616e206461746120617272617973206861766520646966666572656e74206c656e67746873",
  "source": "pragma solidity ^0.5.4;\n\nimport \"../SubscriptionManager.sol\";\n\n/**\n * @title Subscription manager plan based usecase.\n * @dev This usecase supports plans (restricts the parameters that a\n * subscription can have).\n */\ncontract PlanSubscriptionManager is SubscriptionManager {\n    struct Plan {\n        // Amount of tokens to be transferred\n        uint256 price;\n        // Unit used for billing periods\n        PeriodUnit periodUnit;\n        // Number of PeriodUnits between payments\n        uint256 periods;\n        // Number of times that it can be executed (0 means no limit)\n        uint256 maxExecutions;\n        // Indicates whether the plan is private\n        bool priv;\n        // Indicates whether the plan is active\n        bool active;\n        // Indicates whether the plan has been removed\n        bool removed;\n    }\n\n    /* EVENTS */\n\n    event PlanAdded(bytes32 indexed planIdHash, uint256 price, uint256 period);\n    event PlanRemoved(bytes32 indexed planIdHash);\n    event PlanSetActive(bytes32 indexed planIdHash, bool active);\n\n    /* TYPE HASHES FOR EIP712 */\n\n    // Used when signing the creation of a subscription\n    bytes32 constant public SUBSCRIPTION_TYPEHASH =\n        0xd3307f9981a4cfcb5a659dc18022334f7bc2b6d72fcc20723a225e939165d667;\n\n    // Used when signing an authorization for a private plan\n    bytes32 constant public PLAN_AUTHORIZATION_TYPEHASH = \n        0xce1ad2dec01fa016f621edb08cef9d4e608bde7a5feccdabbd95d7ae21122eca; \n\n    // Using when signing the creation o a plan (delegated execution)\n    bytes32 constant public ADD_PLAN_TYPEHASH = \n        0x8be900e5d8700ab17934948496f0bb52143028109f3783369f4fc937dd1af465;\n\n    // Using when signing the removal of a plan (delegated execution)\n    bytes32 constant public REMOVE_PLAN_TYPEHASH =\n        0x2237217912dfc8a3dd0776917d3c8a0fdb382ea70d014f757e954a09c10f7724; \n\n    // Using when signing the (de)activation of a plan (delegated execution)\n    bytes32 constant public SET_ACTIVE_TYPEHASH =\n        0x290836b44dd68304c2182c17b0636d11f95905c9b3e22bf964684b5853f758e9; \n\n    // The token that is used for payments\n    address public acceptedToken;\n\n    /* STATE VARIABLES */\n\n    // Address in charge of authorizing access to private plans\n    address public authorizer;\n        \n    // Subscription hash => keccak256(Plan name)\n    mapping(bytes32 => bytes32) private subscriptionPlans;\n\n    // keccak256(Plan name) => Plan\n    mapping(bytes32 => Plan) public plans;\n\n    /**\n     * @dev Constructor.\n     * @param addresses Array of addresses that contains the token, publisher,\n     * wallet and authorizer for private plans, in that order. This was needed\n     * because of stack issues.\n     * @param planIdHashes The hashes of the initial plans' offchain ids. We\n     * use the hash of the id so that the user can see the plan id (string)\n     * when signing.\n     * @param planPrices The prices for the initial plans. \n     * @param planPeriodUnits The period units for the initial plans. \n     * @param planPeriods The periods for the initial plans. \n     * @param planMaxPeriods The number of periods a subscription can be\n     * executed for each plan. \n     * @param planPrivate Indicates for each plan if it is private. \n     */\n    constructor(\n        address[] memory addresses, // publisher, wallet, token, authorizer\n        bytes32[] memory planIdHashes, \n        uint256[] memory planPrices,\n        PeriodUnit[] memory planPeriodUnits,\n        uint256[] memory planPeriods,\n        uint256[] memory planMaxPeriods,\n        bool[] memory planPrivate\n    ) \n        public\n        SubscriptionManager(addresses[0], addresses[1])\n    {\n        require(\n            addresses.length == 4,\n            \"Different number of addresses provided\"\n        );\n\n        require(addresses[2] != address(0), \"Token can't be 0\");\n        require(addresses[3] != address(0), \"Authorizer can't be 0\");\n\n        acceptedToken = addresses[2];\n        authorizer = addresses[3];\n\n        // The only differences with the Subscription struct is that we use a\n        // string for periodUnit (so the subscriber sees a string when signing)\n        // and also add a nonce for uniqueness protection.\n        assert(SUBSCRIPTION_TYPEHASH == keccak256(\n            \"Subscription(address token,uint256 amount,string periodUnit,uint256 periods,uint256 maxExecutions,uint256 start,string plan,bytes32 nonce)\" // solhint-disable-line max-line-length\n        ));\n\n        assert(PLAN_AUTHORIZATION_TYPEHASH == keccak256(\n            \"PlanAuthorization(bytes32 subscriptionHash,address subscriber)\"\n        ));\n\n        assert(ADD_PLAN_TYPEHASH == keccak256(\n            \"AddPlan(string plan,uint256 price,string periodUnit,uint256 periods,uint256 maxExecutions,bool private)\" // solhint-disable-line max-line-length\n        ));\n\n        assert(REMOVE_PLAN_TYPEHASH == keccak256(\n            \"RemovePlan(string plan)\"\n        ));\n      \n        assert(SET_ACTIVE_TYPEHASH == keccak256(\n            \"SetActive(string plan,bool active,bytes32 nonce)\"\n        ));\n\n        require(\n            planIdHashes.length == planPrices.length &&\n            planPrices.length == planPeriodUnits.length &&\n            planPeriodUnits.length == planPeriods.length &&\n            planPeriods.length == planMaxPeriods.length &&\n            planMaxPeriods.length == planPrivate.length,\n            \"Plan data arrays have different lengths\"\n        );\n\n        for(uint256 i = 0; i < planIdHashes.length; i++) {\n            _addPlan(\n                planIdHashes[i],\n                planPrices[i],\n                planPeriodUnits[i],\n                planPeriods[i],\n                planMaxPeriods[i],\n                planPrivate[i]\n            );\n        }\n    }\n\n    /**\n     * @dev Adds a plan. It can only be called by the owner or by providing\n     * the owner's signature.\n     * @param planIdHash The hash of the offchain id for the plan.\n     * @param price Amount of tokens to be transfer on execution.\n     * @param periodUnit Unit to use for periods (Day, Month, Year).\n     * @param periods Number period units between each payment.\n     * @param maxExecutions Number of times a subscription with this plan\n     * can be executed.\n     * @param priv True if the plan to add is private.\n     * @param sig Optional signature for delegated execution. \n     */\n    function addPlan(\n        bytes32 planIdHash,\n        uint256 price,\n        PeriodUnit periodUnit,\n        uint256 periods,\n        uint256 maxExecutions,\n        bool priv,\n        bytes calldata sig\n    ) \n        external\n        delegatedOwner(abi.encode(\n            ADD_PLAN_TYPEHASH,\n            planIdHash,\n            price,\n            _getPeriodUnitHash(periodUnit),\n            periods,\n            maxExecutions,\n            priv\n        ), sig)\n    {\n        _addPlan(planIdHash, price, periodUnit, periods, maxExecutions, priv);\n    }\n\n    /**\n     * @dev Removes a plan. It can only be called by the owner or by providing\n     * the owner's signature. It invalidates all existing subscriptions with\n     * this plan because state checks will fail.\n     * @param planIdHash The hash of the offchain id for the plan.\n     * @param sig Optional signature for delegated execution. \n     */\n    function removePlan(\n        bytes32 planIdHash,\n        bytes calldata sig\n    )\n        external\n        delegatedOwner(abi.encode(\n            REMOVE_PLAN_TYPEHASH,\n            planIdHash\n        ), sig)\n    {\n        Plan storage plan = plans[planIdHash];\n        require(plan.price != 0 && !plan.removed, \"Plan doesn't exist\");\n\n        delete plans[planIdHash];\n        plans[planIdHash].removed = true;\n\n        emit PlanRemoved(planIdHash);\n    }\n\n    /**\n     * @dev Sets a plan active or inactive. When inactive, a plan doesn't\n     * accept new subscriptions. It can only be called by the owner or by\n     * providing the owner's signature.\n     * @param planIdHash The hash of the offchain id for the plan.\n     * @param active Specifies if the plan will be set as active or inactive.\n     * @param nonce Specifies if the plan will be set as active or inactive.\n     * Only needed when delegating execution.\n     * @param sig Optional signature for delegated execution. \n     */\n    function setActive(\n        bytes32 planIdHash,\n        bool active,\n        bytes32 nonce,\n        bytes calldata sig\n    )\n        external\n        delegatedOwner(abi.encode(\n            SET_ACTIVE_TYPEHASH,\n            planIdHash,\n            active,\n            nonce\n        ), sig)\n    {\n        Plan storage plan = plans[planIdHash];\n        require(plan.price != 0 && !plan.removed, \"Plan doesn't exist\");\n        plan.active = active;\n\n        emit PlanSetActive(planIdHash, active);\n    }\n\n    /**\n     * @dev Creates a subscription.\n     * @param maxExecutions Number of times the subscription can be executed.\n     * @param start Timestamp in which the first payment can be executed.\n     * @param planIdHash The hash of the offchain id for the plan.\n     * @param nonce Replay protection.\n     * @param authSig Signature generated by the authorizer for private plans.\n     * @param sig Signature generated by the subscriber. \n     */\n    function create(\n        uint256 maxExecutions,\n        uint256 start,\n        bytes32 planIdHash,\n        bytes32 nonce,\n        bytes memory authSig,\n        bytes memory sig\n    )\n        public\n    {\n        Plan storage plan = plans[planIdHash];\n\n        require(plan.active, \"Plan doesn't accept new subscriptions\");\n\n        require(\n            plan.maxExecutions == 0 || maxExecutions <= plan.maxExecutions,\n            \"Max periods exceed plan's max periods\"\n        );\n\n        bytes32 subscriptionHash = keccak256(abi.encode(\n            SUBSCRIPTION_TYPEHASH,\n            acceptedToken,\n            plan.price,\n            _getPeriodUnitHash(plan.periodUnit),\n            plan.periods,\n            maxExecutions,\n            start,\n            planIdHash,\n            nonce\n        ));\n\n        _replayGuard(subscriptionHash);\n\n        address subscriber = getSigner(subscriptionHash, sig);\n\n        if (plan.priv) {\n            bytes32 authHash = keccak256(abi.encode(\n                PLAN_AUTHORIZATION_TYPEHASH,\n                subscriptionHash,\n                subscriber\n            ));\n\n            require(\n                authorizer == getSigner(authHash, authSig),\n                \"Invalid authorization signature\"\n            );\n        }\n\n        _create(\n            subscriptionHash,\n            subscriber,\n            acceptedToken,\n            plan.price,\n            plan.periodUnit,\n            plan.periods,\n            maxExecutions == 0 ? plan.maxExecutions : maxExecutions,\n            start\n        );\n\n        subscriptionPlans[subscriptionHash] = planIdHash;\n    }\n\n    /**\n     * @dev Overrides the validation and adds checks related to plans.\n     * @param subscriptionHash The id of the subscription.\n     * @param sub The struct with the subscription's data.\n     */\n    function _validateSubscriptionState(\n        bytes32 subscriptionHash,\n        Subscription memory sub\n    )\n        internal\n        view\n    {\n        super._validateSubscriptionState(subscriptionHash, sub);\n\n        Plan storage plan = plans[subscriptionPlans[subscriptionHash]];\n        require(!plan.removed, \"Plan has been removed\");\n    }\n\n    /**\n     * @dev Internal function for adding a plan.\n     * @param planIdHash The hash of the offchain id for the plan.\n     * @param price Amount of tokens to be transferred on execution.\n     * @param periodUnit Unit to use for periods (Day, Month, Year).\n     * @param periods Number period units between each payment.\n     * @param maxExecutions Number of times a subscription with this plan\n     * can be executed.\n     * @param priv True if the plan to add is private.\n     */\n    function _addPlan(\n        bytes32 planIdHash,\n        uint256 price,\n        PeriodUnit periodUnit,\n        uint256 periods,\n        uint256 maxExecutions,\n        bool priv\n    )\n        internal\n    {\n        require(price != 0, \"Plan price can't be 0\");\n        require(periods != 0, \"Plan periods can't be 0\");\n\n        Plan storage plan = plans[planIdHash];\n\n        require(\n            plan.price == 0 && !plan.removed,\n            \"Plan id has already been used\"\n        );\n\n        plan.price = price;\n        plan.periodUnit = periodUnit;\n        plan.periods = periods;\n        plan.maxExecutions = maxExecutions;\n        plan.priv = priv;\n        plan.active = true;\n\n        emit PlanAdded(planIdHash, price, periods);\n    }\n}\n",
  "sourcePath": "/home/vdrg/Work/tokenfoundry/subscription-contracts/contracts/usecases/PlanSubscriptionManager.sol",
  "compiler": {
    "name": "solc",
    "version": "0.5.6+commit.b259423e.Emscripten.clang"
  },
  "schemaVersion": "3.0.2",
  "updatedAt": "2019-03-26T16:22:47.464Z",
  "devdoc": {
    "details": "This usecase supports plans (restricts the parameters that a subscription can have).",
    "methods": {
      "addPlan(bytes32,uint256,uint8,uint256,uint256,bool,bytes)": {
        "details": "Adds a plan. It can only be called by the owner or by providing the owner's signature.",
        "params": {
          "maxExecutions": "Number of times a subscription with this plan can be executed.",
          "periodUnit": "Unit to use for periods (Day, Month, Year).",
          "periods": "Number period units between each payment.",
          "planIdHash": "The hash of the offchain id for the plan.",
          "price": "Amount of tokens to be transfer on execution.",
          "priv": "True if the plan to add is private.",
          "sig": "Optional signature for delegated execution. "
        }
      },
      "cancel(bytes32)": {
        "details": "Cancels a subscription (it can not be executed). It can be called by the owner or the subscriber.",
        "params": {
          "subscriptionHash": "The hash of the subscription."
        }
      },
      "cancel(bytes32,bytes)": {
        "details": "Cancels a subscription (it can't be executed).",
        "params": {
          "signature": "Signature generated by subscriber or owner.",
          "subscriptionHash": "The id of the subscription."
        }
      },
      "constructor": {
        "details": "Constructor.",
        "params": {
          "addresses": "Array of addresses that contains the token, publisher, wallet and authorizer for private plans, in that order. This was needed because of stack issues.",
          "planIdHashes": "The hashes of the initial plans' offchain ids. We use the hash of the id so that the user can see the plan id (string) when signing.",
          "planMaxPeriods": "The number of periods a subscription can be executed for each plan. ",
          "planPeriodUnits": "The period units for the initial plans. ",
          "planPeriods": "The periods for the initial plans. ",
          "planPrices": "The prices for the initial plans. ",
          "planPrivate": "Indicates for each plan if it is private. "
        }
      },
      "create(uint256,uint256,bytes32,bytes32,bytes,bytes)": {
        "details": "Creates a subscription.",
        "params": {
          "authSig": "Signature generated by the authorizer for private plans.",
          "maxExecutions": "Number of times the subscription can be executed.",
          "nonce": "Replay protection.",
          "planIdHash": "The hash of the offchain id for the plan.",
          "sig": "Signature generated by the subscriber. ",
          "start": "Timestamp in which the first payment can be executed."
        }
      },
      "execute(bytes32)": {
        "details": "Executes the subscription (transfers tokens).",
        "params": {
          "subscriptionHash": "The hash of the subscription to execute."
        }
      },
      "executeBatch(bytes32[])": {
        "details": "Helper to execute multiple subscriptions.",
        "params": {
          "subscriptionHashes": "The hashes of the subscriptions to execute."
        }
      },
      "getActionHash(string,bytes32)": {
        "details": "Gets the hash that is signed to perform an operation on a subscription.",
        "params": {
          "action": "The action to be performed.",
          "subscriptionHash": "The id of the subscription."
        },
        "return": "The hash to be signed."
      },
      "getSigner(bytes32,bytes)": {
        "details": "Gets the signer for a given hash and signature (using EIP712).",
        "params": {
          "hash": "The hash that was signed.",
          "signature": "The signature for the given hash."
        },
        "return": "The address recovered from the hash and the signature."
      },
      "getSubscription(bytes32)": {
        "details": "Gets the data from a subscription.",
        "params": {
          "subscriptionHash": "The hash of the subscription."
        },
        "return": "The subscription data."
      },
      "isActive(bytes32)": {
        "details": "Returns if the subscription is considered active, which means that it has been executed at least once and the next payment is in the future. A subscription that is cancelled is still considered active until the end of the period.",
        "params": {
          "subscriptionHash": "The hash of the subscription."
        },
        "return": "True if the subscription is active, false otherwise."
      },
      "isCancelled(bytes32)": {
        "details": "Returns if the subscription has been cancelled.",
        "params": {
          "subscriptionHash": "The hash of the subscription."
        },
        "return": "True if the subscription is cancelled, false otherwise."
      },
      "isOwner()": {
        "return": "true if `msg.sender` is the owner of the contract."
      },
      "nextPaymentTimestamp(bytes32)": {
        "details": "Gets the next timestamp in which the subscription can be executed. It is possible for this method to return a timestamp in the past, so publishers need to provide a grace period because of the delay in transaction execution.",
        "params": {
          "subscriptionHash": "The hash of the subscription."
        },
        "return": "The timestamp in which the subscription can be executed."
      },
      "owner()": {
        "return": "the address of the owner."
      },
      "removePlan(bytes32,bytes)": {
        "details": "Removes a plan. It can only be called by the owner or by providing the owner's signature. It invalidates all existing subscriptions with this plan because state checks will fail.",
        "params": {
          "planIdHash": "The hash of the offchain id for the plan.",
          "sig": "Optional signature for delegated execution. "
        }
      },
      "renounceOwnership()": {
        "details": "Allows the current owner to relinquish control of the contract. It will not be possible to call the functions with the `onlyOwner` modifier anymore."
      },
      "setActive(bytes32,bool,bytes32,bytes)": {
        "details": "Sets a plan active or inactive. When inactive, a plan doesn't accept new subscriptions. It can only be called by the owner or by providing the owner's signature.",
        "params": {
          "active": "Specifies if the plan will be set as active or inactive.",
          "nonce": "Specifies if the plan will be set as active or inactive. Only needed when delegating execution.",
          "planIdHash": "The hash of the offchain id for the plan.",
          "sig": "Optional signature for delegated execution. "
        }
      },
      "subscriberSubscriptionByIndex(address,uint256)": {
        "details": "Gets the subscription hash at a given index of the subscription array of a subscriber.",
        "params": {
          "index": "The index of the subscription in the subscriber's subscription array.",
          "subscriber": "The address of the subscriber."
        },
        "return": "The hash of the subscription."
      },
      "subscriberSubscriptionCount(address)": {
        "details": "Gets the number of subscriptions that haven't been cancelled for a subscriber.",
        "params": {
          "subscriber": "The address of the subscriber."
        },
        "return": "The number of subscriptions."
      },
      "subscriberSubscriptionRange(address,uint256,uint256)": {
        "details": "Gets an array of subscription hashes given an offset and limit for a subscriber.",
        "params": {
          "limit": "Maximum amount of hashes to return",
          "offset": "The offset of the first hash (if any)."
        },
        "return": "The array of subscriptions hashes"
      },
      "subscriptionByIndex(uint256)": {
        "details": "Gets the subscription hash at a given index of all subscriptions.",
        "params": {
          "index": "The index of the subscription."
        },
        "return": "The hash of the subscription."
      },
      "subscriptionCount()": {
        "details": "Gets the total number of not cancelled subscriptions.",
        "return": "The total number of subscriptions."
      },
      "subscriptionRange(uint256,uint256)": {
        "details": "Gets an array of subscription hashes given an offset and limit.",
        "params": {
          "limit": "Maximum amount of hashes to return",
          "offset": "The offset of the first hash (if any)."
        },
        "return": "The array of subscriptions hashes"
      },
      "transferOwnership(address)": {
        "details": "Allows the current owner to transfer control of the contract to a newOwner.",
        "params": {
          "newOwner": "The address to transfer ownership to."
        }
      }
    },
    "title": "Subscription manager plan based usecase."
  },
  "userdoc": {
    "methods": {
      "renounceOwnership()": {
        "notice": "Renouncing ownership will leave the contract without an owner, thereby removing any functionality that is only available to the owner."
      }
    }
  }
}