{
  "contractName": "SubscriptionManagerMock",
  "abi": [
    {
      "constant": true,
      "inputs": [
        {
          "name": "action",
          "type": "string"
        },
        {
          "name": "subscriptionHash",
          "type": "bytes32"
        }
      ],
      "name": "getActionHash",
      "outputs": [
        {
          "name": "",
          "type": "bytes32"
        }
      ],
      "payable": false,
      "stateMutability": "pure",
      "type": "function"
    },
    {
      "constant": true,
      "inputs": [],
      "name": "subscriptionCount",
      "outputs": [
        {
          "name": "",
          "type": "uint256"
        }
      ],
      "payable": false,
      "stateMutability": "view",
      "type": "function"
    },
    {
      "constant": true,
      "inputs": [
        {
          "name": "subscriptionHash",
          "type": "bytes32"
        }
      ],
      "name": "getSubscription",
      "outputs": [
        {
          "name": "subscriber",
          "type": "address"
        },
        {
          "name": "token",
          "type": "address"
        },
        {
          "name": "amount",
          "type": "uint256"
        },
        {
          "name": "periodUnit",
          "type": "uint8"
        },
        {
          "name": "periods",
          "type": "uint256"
        },
        {
          "name": "maxExecutions",
          "type": "uint256"
        },
        {
          "name": "start",
          "type": "uint256"
        }
      ],
      "payable": false,
      "stateMutability": "view",
      "type": "function"
    },
    {
      "constant": true,
      "inputs": [
        {
          "name": "subscriber",
          "type": "address"
        },
        {
          "name": "offset",
          "type": "uint256"
        },
        {
          "name": "limit",
          "type": "uint256"
        }
      ],
      "name": "subscriberSubscriptionRange",
      "outputs": [
        {
          "name": "",
          "type": "bytes32[]"
        }
      ],
      "payable": false,
      "stateMutability": "view",
      "type": "function"
    },
    {
      "constant": false,
      "inputs": [
        {
          "name": "subscriptionHash",
          "type": "bytes32"
        },
        {
          "name": "signature",
          "type": "bytes"
        }
      ],
      "name": "cancel",
      "outputs": [],
      "payable": false,
      "stateMutability": "nonpayable",
      "type": "function"
    },
    {
      "constant": true,
      "inputs": [
        {
          "name": "subscriber",
          "type": "address"
        }
      ],
      "name": "subscriberSubscriptionCount",
      "outputs": [
        {
          "name": "",
          "type": "uint256"
        }
      ],
      "payable": false,
      "stateMutability": "view",
      "type": "function"
    },
    {
      "constant": true,
      "inputs": [
        {
          "name": "offset",
          "type": "uint256"
        },
        {
          "name": "limit",
          "type": "uint256"
        }
      ],
      "name": "subscriptionRange",
      "outputs": [
        {
          "name": "subscriptions",
          "type": "bytes32[]"
        }
      ],
      "payable": false,
      "stateMutability": "view",
      "type": "function"
    },
    {
      "constant": true,
      "inputs": [],
      "name": "wallet",
      "outputs": [
        {
          "name": "",
          "type": "address"
        }
      ],
      "payable": false,
      "stateMutability": "view",
      "type": "function"
    },
    {
      "constant": false,
      "inputs": [
        {
          "name": "subscriptionHashes",
          "type": "bytes32[]"
        }
      ],
      "name": "executeBatch",
      "outputs": [],
      "payable": false,
      "stateMutability": "nonpayable",
      "type": "function"
    },
    {
      "constant": true,
      "inputs": [
        {
          "name": "subscriptionHash",
          "type": "bytes32"
        }
      ],
      "name": "isActive",
      "outputs": [
        {
          "name": "",
          "type": "bool"
        }
      ],
      "payable": false,
      "stateMutability": "view",
      "type": "function"
    },
    {
      "constant": false,
      "inputs": [],
      "name": "renounceOwnership",
      "outputs": [],
      "payable": false,
      "stateMutability": "nonpayable",
      "type": "function"
    },
    {
      "constant": true,
      "inputs": [
        {
          "name": "index",
          "type": "uint256"
        }
      ],
      "name": "subscriptionByIndex",
      "outputs": [
        {
          "name": "",
          "type": "bytes32"
        }
      ],
      "payable": false,
      "stateMutability": "view",
      "type": "function"
    },
    {
      "constant": true,
      "inputs": [],
      "name": "owner",
      "outputs": [
        {
          "name": "",
          "type": "address"
        }
      ],
      "payable": false,
      "stateMutability": "view",
      "type": "function"
    },
    {
      "constant": true,
      "inputs": [],
      "name": "isOwner",
      "outputs": [
        {
          "name": "",
          "type": "bool"
        }
      ],
      "payable": false,
      "stateMutability": "view",
      "type": "function"
    },
    {
      "constant": true,
      "inputs": [
        {
          "name": "subscriptionHash",
          "type": "bytes32"
        }
      ],
      "name": "isCancelled",
      "outputs": [
        {
          "name": "",
          "type": "bool"
        }
      ],
      "payable": false,
      "stateMutability": "view",
      "type": "function"
    },
    {
      "constant": true,
      "inputs": [],
      "name": "EIP712DOMAIN_TYPEHASH",
      "outputs": [
        {
          "name": "",
          "type": "bytes32"
        }
      ],
      "payable": false,
      "stateMutability": "view",
      "type": "function"
    },
    {
      "constant": false,
      "inputs": [
        {
          "name": "subscriptionHash",
          "type": "bytes32"
        }
      ],
      "name": "cancel",
      "outputs": [],
      "payable": false,
      "stateMutability": "nonpayable",
      "type": "function"
    },
    {
      "constant": false,
      "inputs": [
        {
          "name": "subscriptionHash",
          "type": "bytes32"
        }
      ],
      "name": "execute",
      "outputs": [],
      "payable": false,
      "stateMutability": "nonpayable",
      "type": "function"
    },
    {
      "constant": true,
      "inputs": [
        {
          "name": "subscriber",
          "type": "address"
        },
        {
          "name": "index",
          "type": "uint256"
        }
      ],
      "name": "subscriberSubscriptionByIndex",
      "outputs": [
        {
          "name": "",
          "type": "bytes32"
        }
      ],
      "payable": false,
      "stateMutability": "view",
      "type": "function"
    },
    {
      "constant": false,
      "inputs": [
        {
          "name": "newOwner",
          "type": "address"
        }
      ],
      "name": "transferOwnership",
      "outputs": [],
      "payable": false,
      "stateMutability": "nonpayable",
      "type": "function"
    },
    {
      "constant": true,
      "inputs": [],
      "name": "domainSeparator",
      "outputs": [
        {
          "name": "",
          "type": "bytes32"
        }
      ],
      "payable": false,
      "stateMutability": "view",
      "type": "function"
    },
    {
      "constant": true,
      "inputs": [],
      "name": "SUBSCRIPTION_ACTION_TYPEHASH",
      "outputs": [
        {
          "name": "",
          "type": "bytes32"
        }
      ],
      "payable": false,
      "stateMutability": "view",
      "type": "function"
    },
    {
      "constant": true,
      "inputs": [
        {
          "name": "hash",
          "type": "bytes32"
        },
        {
          "name": "signature",
          "type": "bytes"
        }
      ],
      "name": "getSigner",
      "outputs": [
        {
          "name": "",
          "type": "address"
        }
      ],
      "payable": false,
      "stateMutability": "view",
      "type": "function"
    },
    {
      "constant": true,
      "inputs": [
        {
          "name": "subscriptionHash",
          "type": "bytes32"
        }
      ],
      "name": "nextPaymentTimestamp",
      "outputs": [
        {
          "name": "",
          "type": "uint256"
        }
      ],
      "payable": false,
      "stateMutability": "view",
      "type": "function"
    },
    {
      "inputs": [
        {
          "name": "publisher",
          "type": "address"
        },
        {
          "name": "wallet",
          "type": "address"
        }
      ],
      "payable": false,
      "stateMutability": "nonpayable",
      "type": "constructor"
    },
    {
      "anonymous": false,
      "inputs": [
        {
          "indexed": false,
          "name": "subscriptionHash",
          "type": "bytes32"
        }
      ],
      "name": "SubscriptionCreated",
      "type": "event"
    },
    {
      "anonymous": false,
      "inputs": [
        {
          "indexed": false,
          "name": "subscriptionHash",
          "type": "bytes32"
        },
        {
          "indexed": false,
          "name": "expired",
          "type": "bool"
        }
      ],
      "name": "SubscriptionCancelled",
      "type": "event"
    },
    {
      "anonymous": false,
      "inputs": [
        {
          "indexed": false,
          "name": "subscriptionHash",
          "type": "bytes32"
        }
      ],
      "name": "SubscriptionExecuted",
      "type": "event"
    },
    {
      "anonymous": false,
      "inputs": [
        {
          "indexed": true,
          "name": "previousOwner",
          "type": "address"
        },
        {
          "indexed": true,
          "name": "newOwner",
          "type": "address"
        }
      ],
      "name": "OwnershipTransferred",
      "type": "event"
    },
    {
      "constant": false,
      "inputs": [
        {
          "name": "subscriber",
          "type": "address"
        },
        {
          "name": "token",
          "type": "address"
        },
        {
          "name": "amount",
          "type": "uint256"
        },
        {
          "name": "periodUnit",
          "type": "uint8"
        },
        {
          "name": "periods",
          "type": "uint256"
        },
        {
          "name": "maxPeriods",
          "type": "uint256"
        },
        {
          "name": "start",
          "type": "uint256"
        }
      ],
      "name": "create",
      "outputs": [],
      "payable": false,
      "stateMutability": "nonpayable",
      "type": "function"
    },
    {
      "constant": false,
      "inputs": [
        {
          "name": "subscriber",
          "type": "address"
        },
        {
          "name": "token",
          "type": "address"
        },
        {
          "name": "amount",
          "type": "uint256"
        },
        {
          "name": "periodUnit",
          "type": "uint8"
        },
        {
          "name": "periods",
          "type": "uint256"
        },
        {
          "name": "maxPeriods",
          "type": "uint256"
        },
        {
          "name": "start",
          "type": "uint256"
        }
      ],
      "name": "createWithoutNonce",
      "outputs": [],
      "payable": false,
      "stateMutability": "nonpayable",
      "type": "function"
    }
  ],
  "bytecode": "0x60806040526000600b553480156200001657600080fd5b506040516040806200242b833981018060405260408110156200003857600080fd5b50805160209091015160008054600160a060020a031916331780825560405184928492600160a060020a0316916000805160206200240b833981519152908290a360405180603a620023d1823960405190819003603a0190207f8efea30086451ce9078f6724758fd325989eacdb25a4db53cda50312196a6760149050620000bc57fe5b6040518060276200238a8239604051908190036027019020600080516020620023b1833981519152149050620000ee57fe5b60408051600080516020620023b1833981519152602080830191909152308284015282518083038401815260609092019092528051910120600255600160a060020a0381166200019f57604080517f08c379a000000000000000000000000000000000000000000000000000000000815260206004820152601160248201527f57616c6c65742063616e27742062652030000000000000000000000000000000604482015290519081900360640190fd5b60018054600160a060020a031916600160a060020a038316179055620001ce82640100000000620001d8810204565b5050505062000236565b600160a060020a038116620001ec57600080fd5b60008054604051600160a060020a03808516939216916000805160206200240b83398151915291a360008054600160a060020a031916600160a060020a0392909216919091179055565b61214480620002466000396000f3fe608060405234801561001057600080fd5b50600436106101ab576000357c0100000000000000000000000000000000000000000000000000000000900480638d4be2a2116100fb578063e751f271116100b4578063f698da251161008e578063f698da251461067a578063f788e83414610682578063f7b2ec0d1461068a578063fca3465714610737576101ab565b8063e751f2711461060b578063ed4d4d7a14610628578063f2fde38b14610654576101ab565b80638d4be2a2146105685780638da5cb5b146105b95780638f32d59b146105c15780639a5d4407146105c9578063c49f91d3146105e6578063c4d252f5146105ee576101ab565b80633e389b58116101685780635bf8e09d116101425780635bf8e09d146104a25780635c36901c14610512578063715018a6146105435780638c5acd571461054b576101ab565b80633e389b5814610435578063449e8f0c1461045b578063521eb2731461047e576101ab565b806315209f5e146101b0578063173b6d901461026a578063198362cc146102725780631f32768e146102c557806327bbc06d1461033c578063302bacf3146103be575b600080fd5b610258600480360360408110156101c657600080fd5b8101906020810181356401000000008111156101e157600080fd5b8201836020820111156101f357600080fd5b8035906020019184600183028401116401000000008311171561021557600080fd5b91908080601f0160208091040260200160405190810160405280939291908181526020018383808284376000920191909152509295505091359250610754915050565b60408051918252519081900360200190f35b6102586107b4565b6102c3600480360360e081101561028857600080fd5b50600160a060020a03813581169160208101359091169060408101359060ff6060820135169060808101359060a08101359060c001356107bb565b005b6102e2600480360360208110156102db57600080fd5b50356108bd565b60408051600160a060020a03808a168252881660208201529081018690526060810185600281111561031057fe5b60ff16815260200184815260200183815260200182815260200197505050505050505060405180910390f35b61036e6004803603606081101561035257600080fd5b50600160a060020a0381351690602081013590604001356109b1565b60408051602080825283518183015283519192839290830191858101910280838360005b838110156103aa578181015183820152602001610392565b505050509050019250505060405180910390f35b6102c3600480360360408110156103d457600080fd5b813591908101906040810160208201356401000000008111156103f657600080fd5b82018360208201111561040857600080fd5b8035906020019184600183028401116401000000008311171561042a57600080fd5b5090925090506109e1565b6102586004803603602081101561044b57600080fd5b5035600160a060020a0316610b12565b61036e6004803603604081101561047157600080fd5b5080359060200135610b31565b610486610b3f565b60408051600160a060020a039092168252519081900360200190f35b6102c3600480360360208110156104b857600080fd5b8101906020810181356401000000008111156104d357600080fd5b8201836020820111156104e557600080fd5b8035906020019184602083028401116401000000008311171561050757600080fd5b509092509050610b4e565b61052f6004803603602081101561052857600080fd5b5035610b81565b604080519115158252519081900360200190f35b6102c3610bb1565b6102586004803603602081101561056157600080fd5b5035610c19565b6102c3600480360360e081101561057e57600080fd5b50600160a060020a03813581169160208101359091169060408101359060ff6060820135169060808101359060a08101359060c00135610c98565b610486610d75565b61052f610d84565b61052f600480360360208110156105df57600080fd5b5035610d95565b610258610daa565b6102c36004803603602081101561060457600080fd5b5035610dce565b6102c36004803603602081101561062157600080fd5b5035610e6d565b6102586004803603604081101561063e57600080fd5b50600160a060020a03813516906020013561128e565b6102c36004803603602081101561066a57600080fd5b5035600160a060020a031661131e565b610258611338565b61025861133e565b610486600480360360408110156106a057600080fd5b813591908101906040810160208201356401000000008111156106c257600080fd5b8201836020820111156106d457600080fd5b803590602001918460018302840111640100000000831117156106f657600080fd5b91908080601f016020809104026020016040519081016040528093929190818152602001838380828437600092019190915250929550611362945050505050565b6102586004803603602081101561074d57600080fd5b50356113d5565b8151602080840191909120604080517f8efea30086451ce9078f6724758fd325989eacdb25a4db53cda50312196a676081850152808201929092526060808301859052815180840390910181526080909201905280519101205b92915050565b6009545b90565b600087878787878787600b546040516020018089600160a060020a0316600160a060020a03166c0100000000000000000000000002815260140188600160a060020a0316600160a060020a03166c0100000000000000000000000002815260140187815260200186600281111561082e57fe5b60ff167f0100000000000000000000000000000000000000000000000000000000000000028152600101858152602001848152602001838152602001828152602001985050505050505050506040516020818303038152906040528051906020012090506001600b600082825401925050819055506108b38189898989898989611407565b5050505050505050565b60008060008060008060006108d0612040565b6000898152600460209081526040918290208251610120810184528154600160a060020a0390811682526001830154169281019290925260028082015493830193909352600381015491929091606084019160ff9091169081111561093157fe5b600281111561093c57fe5b8152602001600482015481526020016005820154815260200160068201548152602001600782015481526020016008820154815250509050806000015181602001518260400151836060015184608001518560a001518660c00151975097509750975097509750975050919395979092949650565b600160a060020a03831660009081526007602052604090206060906109d79084846117d3565b90505b9392505050565b6000610a226040518060400160405280600681526020017f63616e63656c000000000000000000000000000000000000000000000000000081525085610754565b90506000610a668285858080601f01602080910402602001604051908101604052809392919081815260200183838082843760009201919091525061136292505050565b600086815260046020526040902054909150600160a060020a03908116908216811480610aab5750610a96610d75565b600160a060020a031682600160a060020a0316145b610aff576040805160e560020a62461bcd02815260206004820152601160248201527f496e76616c6964207369676e6174757265000000000000000000000000000000604482015290519081900360640190fd5b610b0a866000611880565b505050505050565b600160a060020a0381166000908152600760205260409020545b919050565b60606109da600984846117d3565b600154600160a060020a031681565b60005b81811015610b7c57610b74838383818110610b6857fe5b90506020020135610e6d565b600101610b51565b505050565b600081815260056020526040812054421080156107ae575050600090815260046020526040902060070154151590565b610bb9610d84565b610bc257600080fd5b60008054604051600160a060020a03909116907f8be0079c531659141344cd1fd0a4f28419497f9722a3daafe3b4186f6b6457e0908390a36000805473ffffffffffffffffffffffffffffffffffffffff19169055565b6000610c236107b4565b8210610c79576040805160e560020a62461bcd02815260206004820152600d60248201527f496e76616c696420696e64657800000000000000000000000000000000000000604482015290519081900360640190fd5b60098281548110610c8657fe5b90600052602060002001549050919050565b6000878787878787876040516020018088600160a060020a0316600160a060020a03166c0100000000000000000000000002815260140187600160a060020a0316600160a060020a03166c01000000000000000000000000028152601401868152602001856002811115610d0857fe5b60ff167f01000000000000000000000000000000000000000000000000000000000000000281526001018481526020018381526020018281526020019750505050505050506040516020818303038152906040528051906020012090506108b38189898989898989611407565b600054600160a060020a031690565b600054600160a060020a0316331490565b60009081526006602052604090205460ff1690565b7f035aff83d86937d35b32e04f0ddc6ff469290eef2f1b692d8a815c89404d474981565b600081815260046020526040902054600160a060020a0316331480610e0b5750610df6610d75565b600160a060020a031633600160a060020a0316145b610e5f576040805160e560020a62461bcd02815260206004820152601860248201527f4e6f7420617574686f72697a656420746f2063616e63656c0000000000000000604482015290519081900360640190fd5b610e6a816000611880565b50565b600081815260046020819052604090912090810154610ec05760405160e560020a62461bcd02815260040180806020018281038252602b8152602001806120ee602b913960400191505060405180910390fd5b600082815260056020526040902054421015610f26576040805160e560020a62461bcd02815260206004820152601660248201527f537562736372697074696f6e206e6f7420726561647900000000000000000000604482015290519081900360640190fd5b60408051610120810182528254600160a060020a0390811682526001840154166020820152600280840154928201929092526003830154610fbe928592918591606084019160ff1690811115610f7857fe5b6002811115610f8357fe5b8152602001600482015481526020016005820154815260200160068201548152602001600782015481526020016008820154815250506119e6565b600781018054600101908190556004820154600091610fe29163ffffffff6119ea16565b90506000600383015460ff166002811115610ff957fe5b1415611028576006820154611014908263ffffffff611a1116565b600084815260056020526040902055611098565b6001600383015460ff16600281111561103d57fe5b1415611058576006820154611014908263ffffffff611a2616565b6002600383015460ff16600281111561106d57fe5b1415611098576006820154611088908263ffffffff611aa216565b6000848152600560205260409020555b600182015482546002840154604080517f70a08231000000000000000000000000000000000000000000000000000000008152600160a060020a03938416600482018190529151939094169390926000929185916370a0823191602480820192602092909190829003018186803b15801561111257600080fd5b505afa158015611126573d6000803e3d6000fd5b505050506040513d602081101561113c57600080fd5b5051108015906111e457506002850154604080517fdd62ed3e000000000000000000000000000000000000000000000000000000008152600160a060020a03858116600483015230602483015291519186169163dd62ed3e91604480820192602092909190829003018186803b1580156111b557600080fd5b505afa1580156111c9573d6000803e3d6000fd5b505050506040513d60208110156111df57600080fd5b505110155b9050801561124c578454600154600287015461121892600160a060020a03878116939181169291169063ffffffff611ac916565b6040805187815290517f83c61b44a42b48eb9220a7226a1991d5a163bf016b8c3f41631a3d78b0fab5699181900360200190a15b6000856005015460001415801561126a575085600501548660070154145b90508115806112765750805b15611285576112858782611880565b50505050505050565b600160a060020a0382166000908152600760205260408120805483106112fe576040805160e560020a62461bcd02815260206004820152600d60248201527f496e76616c696420696e64657800000000000000000000000000000000000000604482015290519081900360640190fd5b80838154811061130a57fe5b906000526020600020015491505092915050565b611326610d84565b61132f57600080fd5b610e6a81611b57565b60025481565b7f8efea30086451ce9078f6724758fd325989eacdb25a4db53cda50312196a676081565b600254604080517f19010000000000000000000000000000000000000000000000000000000000006020808301919091526022820193909352604280820186905282518083039091018152606290910190915280519101206000906113cd818463ffffffff611bd216565b949350505050565b60008181526006602052604081205460ff16156113f457506000610b2c565b5060009081526005602052604090205490565b600088815260046020526040902054600160a060020a031615801561143b575060008881526006602052604090205460ff16155b61148f576040805160e560020a62461bcd02815260206004820152601360248201527f537562736372697074696f6e2065786973747300000000000000000000000000604482015290519081900360640190fd5b600160a060020a0387166114d75760405160e560020a62461bcd0281526004018080602001828103825260248152602001806120ca6024913960400191505060405180910390fd5b8261152c576040805160e560020a62461bcd02815260206004820152601260248201527f506572696f64732063616e277420626520300000000000000000000000000000604482015290519081900360640190fd5b84611581576040805160e560020a62461bcd02815260206004820152601160248201527f416d6f756e742063616e27742062652030000000000000000000000000000000604482015290519081900360640190fd5b428111156000816115925782611594565b425b90506040518061012001604052808a600160a060020a0316815260200189600160a060020a031681526020018881526020018760028111156115d257fe5b81526020808201889052604080830188905260608084018690526000608085018190524260a0909501949094528e8452600483529281902084518154600160a060020a0391821673ffffffffffffffffffffffffffffffffffffffff1991821617835593860151600180840180549290931691909516179055908401516002808301919091559284015160038201805492949193909260ff191691849081111561167857fe5b02179055506080820151816004015560a0820151816005015560c0820151816006015560e08201518160070155610100820151816008015590505080600560008c8152602001908152602001600020819055506000600760008b600160a060020a0316600160a060020a0316815260200190815260200160002090508080549050600860008d815260200190815260200160002081905550808b9080600181540180825580915050906001820390600052602060002001600090919290919091505550600980549050600a60008d81526020019081526020016000208190555060098b90806001815401808255809150509060018203906000526020600020016000909192909190915055508215611793576117938b610e6d565b604080518c815290517f39e5eda858ba6c05b526dc60957aa4a4cb8055d9220f51fbf7f862acfdf6f9ba9181900360200190a15050505050505050505050565b825460609083106117f357506040805160008152602081019091526109da565b60006118058385878054905003611cc0565b905080604051908082528060200260200182016040528015611831578160200160208202803883390190505b50915060005b8181101561187757858582018154811061184d57fe5b906000526020600020015483828151811061186457fe5b6020908102919091010152600101611837565b50509392505050565b600082815260046020526040902054600160a060020a0316806118ed576040805160e560020a62461bcd02815260206004820152601a60248201527f537562736372697074696f6e20646f65736e2774206578697374000000000000604482015290519081900360640190fd5b600160a060020a038116600090815260076020526040902061191190600885611cd6565b61191e6009600a85611cd6565b6000838152600460208181526040808420805473ffffffffffffffffffffffffffffffffffffffff199081168255600180830180549092169091556002820186905560038201805460ff1990811690915594820186905560058201869055600680830187905560078301879055600890920186905590835293819020805490931690931790915581518581528415159181019190915281517f4617222a812312a8f02e47908fbb1d797d728facdde75d5c15af4051c6f80bdc929181900390910190a1505050565b5050565b6000826119f9575060006107ae565b82820282848281611a0657fe5b04146109da57600080fd5b6201518081028201828110156107ae57600080fd5b6000808080611a3a62015180875b04611d72565b600c918801600019810183810494909401965094509250900660010191506000611a648484611e08565b905080821115611a72578091505b62015180870662015180611a87868686611e8e565b0201945086851015611a9857600080fd5b5050505092915050565b6000808080611ab46201518087611a34565b9187019450925090506000611a648484611e08565b60408051600160a060020a0385811660248301528416604482015260648082018490528251808303909101815260849091019091526020810180517bffffffffffffffffffffffffffffffffffffffffffffffffffffffff167f23b872dd00000000000000000000000000000000000000000000000000000000179052611b51908590611f0a565b50505050565b600160a060020a038116611b6a57600080fd5b60008054604051600160a060020a03808516939216917f8be0079c531659141344cd1fd0a4f28419497f9722a3daafe3b4186f6b6457e091a36000805473ffffffffffffffffffffffffffffffffffffffff1916600160a060020a0392909216919091179055565b60008151604114611be5575060006107ae565b60208201516040830151606084015160001a7f7fffffffffffffffffffffffffffffff5d576e7357a4501ddfe92f46681b20a0821115611c2b57600093505050506107ae565b8060ff16601b14158015611c4357508060ff16601c14155b15611c5457600093505050506107ae565b6040805160008152602080820180845289905260ff8416828401526060820186905260808201859052915160019260a0808401939192601f1981019281900390910190855afa158015611cab573d6000803e3d6000fd5b5050604051601f190151979650505050505050565b6000818310611ccf57816109da565b5090919050565b8254600090611cec90600163ffffffff61200016565b600083815260208590526040902054909150808214611d4c576000858381548110611d1357fe5b9060005260206000200154905080868381548110611d2d57fe5b6000918252602080832090910192909255918252859052604090208190555b8454611d5c86600019830161208c565b5050506000908152602091909152604081205550565b60008080836226496581018262023ab1600483020590506004600362023ab18302010590910390600062164b09610fa0600185010205905060046105b58202058303601f019250600061098f8460500281611dc957fe5b0590506000605061098f83020585039050600b820560301994909401606402929092018301996002600c90940290910392909201975095509350505050565b60008160011480611e195750816003145b80611e245750816005145b80611e2f5750816007145b80611e3a5750816008145b80611e45575081600a145b80611e50575081600c145b15611e5d5750601f6107ae565b81600214611e6d5750601e6107ae565b611e7683612015565b611e8157601c611e84565b601d5b60ff169392505050565b60006107b2841015611e9f57600080fd5b838383600062253d8c600460036064611324600c600d19890105890101050205600c80600d19870105600c02600287030361016f0281611edb57fe5b0560046105b5600c600d1989010589016112c0010205617d4b8603010103039050809450505050509392505050565b611f1c82600160a060020a031661203a565b611f2557600080fd5b6000606083600160a060020a0316836040518082805190602001908083835b60208310611f635780518252601f199092019160209182019101611f44565b6001836020036101000a0380198251168184511680821785525050505050509050019150506000604051808303816000865af19150503d8060008114611fc5576040519150601f19603f3d011682016040523d82523d6000602084013e611fca565b606091505b509150915081611fd957600080fd5b805115611b5157808060200190516020811015611ff557600080fd5b5051611b5157600080fd5b60008282111561200f57600080fd5b50900390565b60006004820615801561202a57506064820615155b806107ae57505061019090061590565b3b151590565b6040805161012081018252600080825260208201819052918101829052906060820190815260200160008152602001600081526020016000815260200160008152602001600081525090565b815481835581811115610b7c57600083815260209020610b7c9181019083016107b891905b808211156120c557600081556001016120b1565b509056fe537562736372696265722063616e277420626520746865207a65726f2061646472657373537562736372697074696f6e20646f65736e2774206578697374206f72207761732063616e63656c6c6564a165627a7a72305820eb267ffb9112229103c1049679b95f5f026453316106a937cfdf130dd9f931fd0029454950373132446f6d61696e286164647265737320766572696679696e67436f6e747261637429035aff83d86937d35b32e04f0ddc6ff469290eef2f1b692d8a815c89404d4749537562736372697074696f6e416374696f6e28737472696e6720616374696f6e2c6279746573333220737562736372697074696f6e48617368298be0079c531659141344cd1fd0a4f28419497f9722a3daafe3b4186f6b6457e0",
  "source": "pragma solidity ^0.5.4;\n\nimport \"../SubscriptionManager.sol\";\n\n\ncontract SubscriptionManagerMock is SubscriptionManager {\n    uint256 nonce = 0;\n\n    constructor(\n        address publisher,\n        address wallet\n    ) public SubscriptionManager(publisher, wallet) {}\n\n    function create(\n        address subscriber,\n        address token,\n        uint256 amount,\n        PeriodUnit periodUnit,\n        uint256 periods,\n        uint256 maxPeriods,\n        uint256 start\n    )\n        external\n    {\n        bytes32 hash = keccak256(abi.encodePacked(\n            subscriber,\n            token,\n            amount,\n            periodUnit,\n            periods,\n            maxPeriods,\n            start,\n            nonce\n        ));\n\n        nonce += 1;\n\n        _create(\n            hash,\n            subscriber,\n            token,\n            amount,\n            periodUnit,\n            periods,\n            maxPeriods,\n            start\n        );\n    }\n\n    function createWithoutNonce(\n        address subscriber,\n        address token,\n        uint256 amount,\n        PeriodUnit periodUnit,\n        uint256 periods,\n        uint256 maxPeriods,\n        uint256 start\n    )\n        external\n    {\n        bytes32 hash = keccak256(abi.encodePacked(\n            subscriber,\n            token,\n            amount,\n            periodUnit,\n            periods,\n            maxPeriods,\n            start\n        ));\n\n        _create(\n            hash,\n            subscriber,\n            token,\n            amount,\n            periodUnit,\n            periods,\n            maxPeriods,\n            start\n        );\n    }\n\n}\n",
  "sourcePath": "/home/vdrg/Work/tokenfoundry/subscription-contracts/contracts/mocks/SubscriptionManagerMock.sol",
  "compiler": {
    "name": "solc",
    "version": "0.5.6+commit.b259423e.Emscripten.clang"
  },
  "schemaVersion": "3.0.2",
  "updatedAt": "2019-03-26T16:22:47.454Z",
  "devdoc": {
    "methods": {
      "cancel(bytes32)": {
        "details": "Cancels a subscription (it can not be executed). It can be called by the owner or the subscriber.",
        "params": {
          "subscriptionHash": "The hash of the subscription."
        }
      },
      "cancel(bytes32,bytes)": {
        "details": "Cancels a subscription (it can't be executed).",
        "params": {
          "signature": "Signature generated by subscriber or owner.",
          "subscriptionHash": "The id of the subscription."
        }
      },
      "execute(bytes32)": {
        "details": "Executes the subscription (transfers tokens).",
        "params": {
          "subscriptionHash": "The hash of the subscription to execute."
        }
      },
      "executeBatch(bytes32[])": {
        "details": "Helper to execute multiple subscriptions.",
        "params": {
          "subscriptionHashes": "The hashes of the subscriptions to execute."
        }
      },
      "getActionHash(string,bytes32)": {
        "details": "Gets the hash that is signed to perform an operation on a subscription.",
        "params": {
          "action": "The action to be performed.",
          "subscriptionHash": "The id of the subscription."
        },
        "return": "The hash to be signed."
      },
      "getSigner(bytes32,bytes)": {
        "details": "Gets the signer for a given hash and signature (using EIP712).",
        "params": {
          "hash": "The hash that was signed.",
          "signature": "The signature for the given hash."
        },
        "return": "The address recovered from the hash and the signature."
      },
      "getSubscription(bytes32)": {
        "details": "Gets the data from a subscription.",
        "params": {
          "subscriptionHash": "The hash of the subscription."
        },
        "return": "The subscription data."
      },
      "isActive(bytes32)": {
        "details": "Returns if the subscription is considered active, which means that it has been executed at least once and the next payment is in the future. A subscription that is cancelled is still considered active until the end of the period.",
        "params": {
          "subscriptionHash": "The hash of the subscription."
        },
        "return": "True if the subscription is active, false otherwise."
      },
      "isCancelled(bytes32)": {
        "details": "Returns if the subscription has been cancelled.",
        "params": {
          "subscriptionHash": "The hash of the subscription."
        },
        "return": "True if the subscription is cancelled, false otherwise."
      },
      "isOwner()": {
        "return": "true if `msg.sender` is the owner of the contract."
      },
      "nextPaymentTimestamp(bytes32)": {
        "details": "Gets the next timestamp in which the subscription can be executed. It is possible for this method to return a timestamp in the past, so publishers need to provide a grace period because of the delay in transaction execution.",
        "params": {
          "subscriptionHash": "The hash of the subscription."
        },
        "return": "The timestamp in which the subscription can be executed."
      },
      "owner()": {
        "return": "the address of the owner."
      },
      "renounceOwnership()": {
        "details": "Allows the current owner to relinquish control of the contract. It will not be possible to call the functions with the `onlyOwner` modifier anymore."
      },
      "subscriberSubscriptionByIndex(address,uint256)": {
        "details": "Gets the subscription hash at a given index of the subscription array of a subscriber.",
        "params": {
          "index": "The index of the subscription in the subscriber's subscription array.",
          "subscriber": "The address of the subscriber."
        },
        "return": "The hash of the subscription."
      },
      "subscriberSubscriptionCount(address)": {
        "details": "Gets the number of subscriptions that haven't been cancelled for a subscriber.",
        "params": {
          "subscriber": "The address of the subscriber."
        },
        "return": "The number of subscriptions."
      },
      "subscriberSubscriptionRange(address,uint256,uint256)": {
        "details": "Gets an array of subscription hashes given an offset and limit for a subscriber.",
        "params": {
          "limit": "Maximum amount of hashes to return",
          "offset": "The offset of the first hash (if any)."
        },
        "return": "The array of subscriptions hashes"
      },
      "subscriptionByIndex(uint256)": {
        "details": "Gets the subscription hash at a given index of all subscriptions.",
        "params": {
          "index": "The index of the subscription."
        },
        "return": "The hash of the subscription."
      },
      "subscriptionCount()": {
        "details": "Gets the total number of not cancelled subscriptions.",
        "return": "The total number of subscriptions."
      },
      "subscriptionRange(uint256,uint256)": {
        "details": "Gets an array of subscription hashes given an offset and limit.",
        "params": {
          "limit": "Maximum amount of hashes to return",
          "offset": "The offset of the first hash (if any)."
        },
        "return": "The array of subscriptions hashes"
      },
      "transferOwnership(address)": {
        "details": "Allows the current owner to transfer control of the contract to a newOwner.",
        "params": {
          "newOwner": "The address to transfer ownership to."
        }
      }
    }
  },
  "userdoc": {
    "methods": {
      "renounceOwnership()": {
        "notice": "Renouncing ownership will leave the contract without an owner, thereby removing any functionality that is only available to the owner."
      }
    }
  }
}